:1000000033C000004CC000004AC0000048C00000DF
:1000100046C0000044C0000042C00000D4C100003F
:100020003EC000003CC000003AC0000038C00000E4
:1000300036C0000034C0000032C0000030C00000F4
:100040002EC000002CC000002AC0000028C0000004
:1000500026C0000024C0000022C0000020C0000014
:100060001EC000001CC0000011241FBECFEFD8E04E
:10007000DEBFCDBF11E0A0E0B1E0E0E2FEE002C0F3
:1000800005900D92A631B107D9F721E0A6E1B1E0C4
:1000900001C01D92AD31B207E1F702D0BFC6B0CFAB
:1000A000CF93DF93CDB7DEB729970FB6F894DEBFB5
:1000B0000FBECDBF88E090E0EDD18AE592E09CD202
:1000C00088E648D0198284E08A8386E18B8382E0C7
:1000D000888798E19C8397E09D8322EE37E03F83F9
:1000E0002E838987CE010196E0D084B18FEF84B949
:1000F00080E2D82E90E0E92E91E0F92E0BE011E09D
:1001000085B18D2585B968EE73E080E090E080D1FF
:10011000CE01019624D089811F928F938A811F92EC
:100120008F938B811F928F93FF92EF925BD38F817E
:100130008F938E818F938D811F928F938C811F92CD
:100140008F931F930F934ED30FB6F894DEBF0FBE5D
:10015000CDBFD6CF80931C0168E480E0B2C1CF92BE
:10016000DF92FF920F931F93CF93DF93CDB7DEB74C
:1001700029970FB6F894DEBF0FBECDBF8C019E014C
:100180002F5F3F4F6901F12CF88619866AE070E015
:1001900080E090E05ED180911C0141E0BE01685F8B
:1001A0007F4FEDD18111F2CF6AE070E080E090E006
:1001B00050D180911C0141E0BE01685F7F4F8ED11C
:1001C0008111F2CF8885F60181936F01F394F7E0F6
:1001D000FF12DACF8981982F92959F708F702AE055
:1001E000929F800D1124F80180838A81982F929527
:1001F0009F708F70FAE09F9F800D1124F80181831A
:100200009B81892F8F7096FF08C095FB222720F9CC
:10021000208792959170990F07C022E0F8012087FE
:100220009073969596959695292F220F220F920FEF
:10023000890F82838C818770F80187838D81982F45
:100240009073969596959695292F220F220F920FCF
:100250008F70890F83838E8184FB992790F9990F82
:10026000292F220F220F920F8F70890F84838F8185
:10027000282F22952F708F7090E0FAE02F9F800D2D
:10028000911D11248053984FF801968385832996F8
:100290000FB6F894DEBF0FBECDBFDF91CF911F9197
:1002A0000F91FF90DF90CF900895FF920F931F93CF
:1002B000CF93DF93CDB7DEB729970FB6F894DEBFA3
:1002C0000FBECDBFFC018E010F5F1F4FD80187E02D
:1002D000800F1D928A13FDCF80812AE0622F94D374
:1002E000392F40E1849FC0011124832B89838181B0
:1002F0008BD3392F40E1849FC0011124832B8A8343
:1003000090858281923051F07FD340E1849F9001AB
:1003100011242071922B90649B830AC0622F74D3A6
:10032000292F30E1839FC00111248073822B8B839E
:10033000878187708C8383813AE0632F65D3292F6F
:1003400040E1849FC00111248073822B8D838481BE
:100350005BD3292F30E1839FC00111248071822B50
:100360008E838581968164E670E05AD39683858377
:100370006AE070E055D36295607F862B8F83F12C05
:10038000F80181918F01F88689876AE070E080E04A
:1003900090E05FD080911C0142E0BE01685F7F4F1A
:1003A000EED08111F2CFF394F7E0FF12E9CF299656
:1003B0000FB6F894DEBF0FBECDBFDF91CF911F9176
:1003C0000F91FF9008951F920F920FB60F92112474
:1003D0008F939F93AF93BF938091160190911701D4
:1003E000A0911801B09119010196A11DB11D809332
:1003F000160190931701A0931801B0931901BF91B2
:10040000AF919F918F910F900FBE0F901F901895F5
:100410002091B00022602093B0002091B1002460B0
:100420002093B10029EF2093B3001092B200611520
:1004300071058105910541F0B99BFECFB99A6150D4
:10044000710981099109F3CF1092B0001092B100A7
:1004500008952091B00022602093B0002091B10057
:1004600021602093B10020E12093B3001092B200EC
:10047000611571058105910541F0B99BFECFB99ACF
:100480006150710981099109F3CF1092B000109267
:10049000B10008958093C4001092C500E0ECF0E034
:1004A0008081808388E18093C100E2ECF0E080816C
:1004B000808308959091C00095FFFCCF8093C60083
:1004C0000895E9EBF0E09081892B80836093B80078
:1004D000ECEBF0E0808184608083089594EA90934F
:1004E000BC009091BC0097FFFCCF9091B900987F21
:1004F000983009F03FC0880F81608093BB0084E88A
:100500008093BC008091BC0087FFFCCF8091B90034
:10051000887F803431F5FB0121E030E080E0642FFA
:1005200070E054E8A4EC17C026173707E1F0A09359
:10053000BC009091BC0097FFFCCF9091B900987FD0
:100540002617370799F0903599F49091BB00908366
:1005500031962F5F3F4F9FEF920F941760F48230D8
:1005600019F782E008C05093BC00E3CF983569F3D7
:1005700083E0EECF81E094E99093BC00089594EA83
:100580009093BC009091BC0097FFFCCF9091B90074
:10059000987F983061F5880F8093BB0084E8809342
:1005A000BC008091BC0087FFFCCF8091B900887FA0
:1005B000883129F4262FFB0180E034E813C082E063
:1005C00017C08230E1F391919093BB003093BC004F
:1005D0009091BC0097FFFCCF9091B900987F983222
:1005E00009F083E09E2F921B941758F301C081E01D
:1005F00094E99093BC00089590931B0180931A0195
:100600000895DC01ED91FC9111978081883649F0C5
:10061000873761F0823669F43196ED93FC9388E078
:1006200008953196ED93FC9380E108953196ED9312
:10063000FC9380E208958F929F92AF92BF92CF92E7
:10064000DF92EF92FF920F931F93CF93DF938C0172
:10065000C42F6A3039F0603109F472C0623009F099
:100660008BC069C02AE0C22ED12CE12CF12CD1E044
:100670004C01990FAA08BB08C501B401A701960156
:10068000E3D1232B242B252B49F0DF5FAAE0B0E038
:10069000A7019601FBD16B017C01EECFC1110BC00C
:1006A000C701B6012AE030E040E050E0CDD1690159
:1006B0007A01CD2F05C094E6C92ED12CE12CF12C66
:1006C0008AE0882E912CA12CB12CCC2309F454C0A3
:1006D000B801012E000C880B990BA7019601B4D12B
:1006E000D22F30E02C9DC0012D9D900D3C9D900D92
:1006F0001124081B190BC701B601A5019401A4D14F
:1007000069017A01E0911A01F0911B0180E38D0FDC
:100710000995C150DACFC150C8010C2E02C0959581
:1007200087950A94E2F780FF09C081E3E0911A01FE
:10073000F0911B010995C111EECF1EC080E3F6CFE9
:10074000D42FD695D695DF5FD130B1F0C450980143
:100750000C2E02C0359527950A94E2F72F702A30A7
:1007600010F480E301C087E3820FE0911A01F09159
:100770001B010995D150E8CFDF91CF911F910F91C7
:10078000FF90EF90DF90CF90BF90AF909F908F90B1
:100790000895EF92FF920F931F93CF93DF93EC0195
:1007A0007C0180E8E80EF11C8E018881882399F095
:1007B000E0911A01F0911B0109952196F8018081C1
:1007C0008A3031F4E0911A01F0911B018DE0099516
:1007D000CE15DF0549F7DF91CF911F910F91FF9063
:1007E000EF9008952F923F924F925F926F927F9277
:1007F0008F929F92AF92BF92CF92DF92EF92FF9231
:100800000F931F93CF93DF931F92CDB7DEB78E0167
:10081000085E1F4FEE89FF89CF0101969F8B8E8B5B
:1008200090819532A1F0992309F4DAC0E0911A0180
:10083000F0911B01892F9983099599819A3051F77D
:10084000E0911A01F0911B018DE00995E3CFCF01F2
:1008500002969F8B8E8B8181843621F188F48236BB
:10086000B1F1833609F0B7C0780182E0E80EF11CDF
:10087000E0911A01F0911B01D8018C9109955EC09D
:10088000833739F0883709F43DC0863609F0A3C0B4
:1008900057C07801B2E0EB0EF11CF8018081918124
:1008A00078DF4CC07801F2E0EF0EF11CD8010D9119
:1008B0001C9117FF09C0E0911A01F0911B018DE214
:1008C000099511950195110940E06AE035C0CE0106
:1008D000469697DE482F7801B2E0EB0EF11CF80146
:1008E00000811181E0911A01F0911B0180E349839D
:1008F0000995E0911A01F0911B0182E60995498161
:1009000062E01AC0CE0146967CDE482F7801F2E004
:10091000EF0EF11CD8010D911C91E0911A01F0919C
:100920001B0180E349830995E0911A01F0911B01B5
:1009300088E70995498160E1C8017DDE87016ACFBA
:100940001801B4E02B0E311CF80140805180628008
:100950007380C301B2011CD14B015C018B01072ED6
:10096000000C880B990B47D19B01AC01C301B2016C
:10097000A6D020E030E04AE754E4EDD109D16B0184
:100980007C0120E030E0A901C301B201FDD087FF66
:1009900012C0E0911A01F0911B018DE20995002728
:1009A000112708191909F094E094D094C094C11C3F
:1009B000D11CE11CF11C40E06AE0C8013CDEE09182
:1009C0001A01F0911B018EE2099543E06AE0C6012D
:1009D00032DE81011FCFE0911A01F0911B0135CF6A
:1009E0000F90DF91CF911F910F91FF90EF90DF90CB
:1009F000CF90BF90AF909F908F907F906F905F90BF
:100A00004F903F902F900895991B79E004C0991F53
:100A1000961708F0961B881F7A95C9F78095089558
:100A2000AA1BBB1B51E107C0AA1FBB1FA617B70714
:100A300010F0A61BB70B881F991F5A95A9F7809530
:100A40009095BC01CD010895A1E21A2EAA1BBB1BF3
:100A5000FD010DC0AA1FBB1FEE1FFF1FA217B3078A
:100A6000E407F50720F0A21BB30BE40BF50B661FA0
:100A7000771F881F991F1A9469F760957095809564
:100A800090959B01AC01BD01CF01089509D0A59FB0
:100A9000900DB49F900DA49F800D911D1124089579
:100AA000A29FB001B39FC001A39F700D811D1124AF
:100AB000911DB29F700D811D1124911D08955058F4
:100AC000BB27AA270ED00DC1FED030F003D120F0F5
:100AD00031F49F3F11F41EF4F3C00EF4E095E7FBF0
:100AE000E9C0E92F0FD180F3BA17620773078407B3
:100AF000950718F071F49EF527C10EF4E0950B2EC2
:100B0000BA2FA02D0B01B90190010C01CA01A0015F
:100B10001124FF27591B99F0593F50F4503E68F1BA
:100B20001A16F040A22F232F342F4427585FF3CFFB
:100B3000469537952795A795F0405395C9F77EF4CC
:100B40001F16BA0B620B730B840BBAF09150A1F015
:100B5000FF0FBB1F661F771F881FC2F70EC0BA0F9B
:100B6000621F731F841F48F4879577956795B79523
:100B7000F7959E3F08F0B3CF9395880F08F099271B
:100B8000EE0F97958795089571D008F481E0089548
:100B900004D06894B111D9C00895BCD088F09F5793
:100BA00090F0B92F9927B751A0F0D1F0660F771FB9
:100BB000881F991F1AF0BA95C9F712C0B13081F099
:100BC000C3D0B1E00895C0C0672F782F8827B85FE1
:100BD00039F0B93FCCF3869577956795B395D9F7FA
:100BE0003EF490958095709561957F4F8F4F9F4F04
:100BF0000895E89409C097FB3EF490958095709510
:100C000061957F4F8F4F9F4F9923A9F0F92F96E958
:100C1000BB279395F695879577956795B795F111CD
:100C2000F8CFFAF4BB0F11F460FF1BC06F5F7F4F6A
:100C30008F4F9F4F16C0882311F096E911C077237C
:100C400021F09EE8872F762F05C0662371F096E885
:100C5000862F70E060E02AF09A95660F771F881F54
:100C6000DAF7880F9695879597F90895990F0008F8
:100C7000550FAA0BE0E8FEEF16161706E807F9076E
:100C8000C0F012161306E407F50798F0621B730B09
:100C9000840B950B39F40A2661F0232B242B252B8A
:100CA00021F408950A2609F4A140A6958FEF811D2D
:100CB000811D089597F99F6780E870E060E00895CE
:100CC0009FEF80EC089500240A9416161706180664
:100CD0000906089500240A94121613061406050640
:100CE0000895092E0394000C11F4882352F0BB0FD1
:100CF00040F4BF2B11F460FF04C06F5F7F4F8F4F34
:100D00009F4F089557FD9058440F551F59F05F3F6E
:100D100071F04795880F97FB991F61F09F3F79F01D
:100D200087950895121613061406551FF2CF46959F
:100D3000F1DF08C0161617061806991FF1CF869521
:100D40007105610508940895E894BB276627772705
:100D5000CB0197F908950BD0C4CFB5DF28F0BADFE7
:100D600018F0952309F0A6CFABCF1124EECFCADF40
:100D7000A0F3959FD1F3950F50E0551F629FF001AE
:100D8000729FBB27F00DB11D639FAA27F00DB11D07
:100D9000AA1F649F6627B00DA11D661F829F222790
:100DA000B00DA11D621F739FB00DA11D621F839F17
:100DB000A00D611D221F749F3327A00D611D231FED
:100DC000849F600D211D822F762F6A2F11249F573B
:100DD00050408AF0E1F088234AF0EE0FFF1FBB1F5E
:100DE000661F771F881F91505040A9F79E3F5105FD
:100DF00070F060CFAACF5F3FECF3983EDCF38695AE
:100E000077956795B795F795E7959F5FC1F7FE2BA7
:100E1000880F911D9695879597F90895F894FFCFBF
:100E20002025643A25643A256420002025642F2576
:060E3000642F25640A0096
:00000001FF
