:1000000033C000004CC000004AC0000048C00000DF
:1000100046C0000044C0000042C0000074C300009D
:100020003EC000003CC000003AC0000038C00000E4
:1000300036C0000034C0000032C0000030C00000F4
:100040002EC000002CC000002AC0000028C0000004
:1000500026C0000024C0000022C0000020C0000014
:100060001EC000001CC0000011241FBECFEFD8E04E
:10007000DEBFCDBF14E0A0E0B1E0E4ECF7E002C0E9
:1000800005900D92A431B107D9F724E0A4E1B4E0C2
:1000900001C01D92A833B207E1F702D091C3B0CFDF
:1000A00080E00ED361E081E0AFD068EC70E080E0EA
:1000B00090E04ED360E081E0A7D068EC70E080E093
:1000C00090E046D361E082E09FD068EC70E080E091
:1000D00090E03ED360E082E097D068EC70E080E092
:1000E00090E036D361E083E08FD068EC70E080E090
:1000F00090E02ED360E083E087D068EE73E080E08C
:1001000090E026D324E640E061E080E091E040D139
:1001100041E062E483E073D241E069E682E06FD2BD
:1001200041E068E481E06BD2C1E681E0C6D283E0C1
:10013000C4D268EE73E080E090E00AD3D1E0DC0F37
:1001400041E06C2F82E05BD2CD2FDA3771F741E0CE
:1001500062E483E054D241E069E682E050D241E0BB
:1001600068E481E04CD268EE73E080E090E0F0D289
:10017000DBCFCF93DF931F92CDB7DEB769831AD35E
:100180006981862F0F90DF91CF9114C3CF92DF92B8
:10019000EF92FF920F931F93CF93DF931F92CDB7F0
:1001A000DEB7C82E162F811104C0042F83E0C82E9D
:1001B00001C000E02A98D12C83E090E07C01EC188B
:1001C000F1088D2D90E08E159F053CF460E0812FA5
:1001D0004983CFDFD3944981F4CF642F812FC9DFC6
:1001E000FF24F394FC1428F4602F812FC2DFF394D2
:1001F000F9CF2A9A0F90DF91CF911F910F91FF9025
:10020000EF90DF90CF900895462F6FE0BFCF2F92F1
:100210003F924F925F926F927F928F929F92AF9296
:10022000BF92CF92DF92EF92FF920F931F93CF93E3
:10023000DF93CDB7DEB72B970FB6F894DEBF0FBEB6
:10024000CDBF9B878A8780E090E8492E512C27E01C
:10025000622E712CAA84BB8428E0A20EB11CAA8550
:10026000BB851496BF83AE83861709F478C00A85D0
:100270001B8519870887E0E0F0E0E98312010E2E64
:1002800002C0359427940A94E2F7722D70959E2F40
:10029000D301AE1BBF0BBD83AC839F5F983009F4C5
:1002A00045C0B981B917C9F3A885B9852C91C92E64
:1002B000D12CA201092E02C0559547950A94E2F768
:1002C0004095322F34233C93EA84FB84EC0CFD1CD4
:1002D000D7014C9150E04221532146018E1A9F0ACA
:1002E0009B828A820A8002C0559547950A94E2F75C
:1002F000432BA885B9854C9330E0A3014C195D09C7
:1003000002C0359527954A95E2F720FB882480F8AE
:10031000912C94010C8002C0220F331F0A94E2F743
:10032000D7013C913723232B2C93B7CF31962885C7
:1003300039852F5F3F4F39872887E830F10509F06D
:100340009CCFF501D8019C9122912D938D01908332
:100350002E813F81E217F307A9F78F5F85CF2B9698
:100360000FB6F894DEBF0FBECDBFDF91CF911F91C6
:100370000F91FF90EF90DF90CF90BF90AF909F9044
:100380008F907F906F905F904F903F902F90089547
:100390002F923F924F925F926F927F928F929F9295
:1003A000AF92BF92CF92DF92EF92FF920F931F9383
:1003B000CF93DF93CDB7DEB7E1970FB6F894DEBFEA
:1003C0000FBECDBF3C01C62ED42E2CA7442319F05E
:1003D00007E017E002C000E018E0CE0101967C01C2
:1003E000FC0180E28E0D11928E13FDCF19A630E034
:1003F0005E0191E2A90EB11CECA52E2E312C412CF0
:10040000512CF30189A5E80FF11D4081442309F423
:100410008EC0383008F4F0C0F9A5FF5FF9A7F301EA
:1004200089A5E80FF11D4081411101C040E840520B
:10043000BBA6AAA698E0499FA0011124D50180E09F
:1004400090E0FC01E40FF51FE45FFE4F30813D9327
:10045000019688309105A9F76C2DC501D8DEDD2005
:1004600091F0FE01B996802FD701A80FB11D92918E
:100470009C938150EA15FB05B9F70850003208F04B
:100480000FE130E012C088E0800FEAA5FBA5919152
:10049000FBA7EAA7F701E00FF11D90830F5F081398
:1004A000F4CF30E0003208F000E040E0942F910FEC
:1004B0002A9850E071E0740F903208F09052E92FC2
:1004C000F0E0473029F4523019F447018E0E9F1E98
:1004D000EE0DFF1D6081872F38AB4EA75DA77FA76C
:1004E00099AB47DE99A9985F5DA55F5F38A94EA5D6
:1004F0007FA5533009F7472F2A9A7830B9F6DD20C7
:1005000039F0F40110821150103250F01FE108C090
:10051000F701E10FF11D10821F5F103208F010E0AB
:100520003F5FC201B10138AB13D138A96ACF38306F
:1005300008F45FC080E1C82EFCA54F2E512C612C21
:10054000712C540190E0092F010F2A9820E0992482
:100550009394990E003208F00052402F50E09730EB
:1005600029F4223019F45701A40EB51EF701E40F47
:10057000F51F6081892D2DA799ABFBDD085F2DA5A7
:100580002F5F99A9233031F7992D2A9A9830D9F6FF
:100590004501DD2039F0F50110821150103250F084
:1005A0001FE108C0F701E10FF11D10821F5F10323B
:1005B00008F010E0C301B201CBD0CA94C110C1CF82
:1005C000E1960FB6F894DEBF0FBECDBFDF91CF919D
:1005D0001F910F91FF90EF90DF90CF90BF90AF9061
:1005E0009F908F907F906F905F904F903F902F9053
:1005F000089531115ACF1ACF311157CF18CFFF922A
:100600000F931F93CF93DF93CDB7DEB728970FB625
:10061000F894DEBF0FBECDBFF82E88E0689FD001F2
:1006200011248E010F5F1F4F20E030E0F901EA0F27
:10063000FB1FE45FFF4F8081F80181938F012F5FE3
:100640003F4F2830310591F7642FCE010196DFDD51
:10065000A3E0B0E0AF19B10923E0AA0FBB1F2A95B0
:10066000E1F7A85EBB4FFE01319688E08E0F9191B5
:100670009D938E13FCCF80E02A9898E1F92EF80E16
:10068000082F11E0180FE02FF0E0E85EFB4F6081CB
:10069000812F6FDD085F0F11F6CF812F2A9A183056
:1006A00059F728960FB6F894DEBF0FBECDBFDF9185
:1006B000CF911F910F91FF90089543E060E29FCF8B
:1006C00068D047E06BE080E061DD47E06BE080E010
:1006D0005DDD4FE06AE080E059DD80E0EEDF41E083
:1006E0006CE080E053DD40E06FE080E04FDD40E013
:1006F00069E080E04BDDE8E1F4E080E28E0F1192EA
:100700008E13FDCF08951F920F920FB60F921124F2
:100710008F939F93AF93BF9380911404909115048E
:10072000A0911604B09117040196A11DB11D8093EC
:10073000140490931504A0931604B0931704BF916A
:10074000AF919F918F910F900FBE0F901F901895B2
:100750002091B00022602093B0002091B10024606D
:100760002093B10029EF2093B3001092B2006115DD
:1007700071058105910541F0B99BFECFB99A615091
:10078000710981099109F3CF1092B0001092B10064
:10079000089594B19C6294B99DB582FB222720F9FB
:1007A000922B9DBD9CB58370892B8CBD8CB58065CB
:1007B0008CBD08958EBD0DB407FEFDCF8EB5089596
:0407C000F894FFCFDB
:1007C40048656C6C6F2074686572650000000000F9
:1007D40000000000180018183C3C1800000000003D
:1007E400286C6C006C6CFE6CFE6C6C00103C403829
:1007F4000478100060660C1830660600FC66A614C7
:100804003C663C000000000C1818180060301818F2
:1008140018306000060C1818180C0600006C38FE1E
:10082400386C00000010107C10100000060C0C0C3A
:10083400000000000000003C00000000060600006C
:100844000000000000060C18306000003C66666E74
:1008540076663C007E1818181C1818007E060C30AA
:1008640060663C003C66603860663C0030307E3236
:10087400343830003C6660603E067E003C66663E6E
:1008840006663C001818183030667E003C66663CEC
:1008940066663C003C66607C66663C000018180096
:1008A400181800000C181800181800006030180CF4
:1008B400183060006030180C18306000060C1830D6
:1008C400180C06001800183860663C00003C421AF8
:1008D4003A221C006666667E66663C003E66663E9C
:1008E40066663E003C66060606663C003E66666634
:1008F40066663E007E06063E06067E000606063E48
:1009040006067E003C66760606663C006666667EE3
:10091400666666003C18181818183C001C363630F9
:100924003030780066361E0E1E3666007E060606D9
:1009340006060600C6C6C6D6FEEEC600C6C6E6F65F
:10094400DECEC6003C66666666663C0006063E660B
:1009540066663E00603C766666663C0066361E3E11
:1009640066663E003C66603C06663C001818181833
:10097400185A7E007C66666666666600183C666683
:1009840066666600C6EEFED6C6C6C600C6C66C3827
:100994006CC6C6001818183C666666007E060C18FD
:1009A40030607E0078181818181878000060301825
:1009B4000C060000006030180C06000000000082E5
:1009C400442810003C00000000000000000000006B
:1009D400603030007C667C603C0000003E66663E11
:1009E400060606003C6606663C0000007C66667CE3
:1009F400606060003C067E663C0000000C0C3E0C0F
:100A04000C6C38003C607C66667C00006666663E62
:100A1400060606003C181818001800001C3636306C
:100A24003000300066361E366606060018181818A0
:100A340018181800D6D6FEEEC60000006666667E5C
:100A44003E0000003C6666663C00000006063E660A
:100A5400663E0000F0B03C36363C00000606666692
:100A64003E0000003E403C027C0000001818187E46
:100A7400181800007C66666666000000183C66660E
:100A8400000000007CD6D6D6C6000000663C183CA8
:100A9400660000003C607C66660000003C0C183078
:100AA4003C0000007018180C181870000018181872
:100AB400181818000E18183018180E000000003608
:100AC4005C000000000000000000000000000000C6
:040AD400000000001E
:00000001FF
