:1000000033C000004DC000004BC0000049C00000DC
:1000100047C0000045C0000043C00000D0C300003E
:100020003FC000003DC000003BC0000039C00000E0
:1000300037C0000035C0000033C0000031C00000F0
:100040002FC000002DC000002BC0000029C0000000
:1000500027C0000025C0000023C0000021C0000010
:100060001FC000001DC0000011241FBECFEFD8E04C
:10007000DEBFCDBF11E0A0E0B1E0E4ECF0E102C0F2
:1000800005900D92AC3FB107D9F722E0ACEFB1E09B
:1000900001C01D92A330B207E1F703D00C946008B1
:1000A000AFCFCF93DF93CDB7DEB7C052D2400FB6FC
:1000B000F894DEBF0FBECDBF88E090E0F4D383E6B6
:1000C00094E008D4FE0131968E010F5F1D4F7F0131
:1000D00084E48193E017F107E1F781E091E09F93D9
:1000E0008F93F2D421E0A70168EE73E080E090E006
:1000F000E4D21F928F9389E091E09F938F93E4D491
:1001000021E0A70168EE73E080E090E05AD21F92F0
:100110008F9385E291E09F938F93D6D4F0D01F9276
:100120008F9380E491E09F938F93CED421E0A70139
:1001300068EE73E080E090E0C0D21F928F9386E576
:1001400091E09F938F93C0D421E0A70168EE73E004
:1001500080E090E036D21F928F938FE691E09F93DC
:100160008F93B2D4CE018F5E9D4F23D3C80124D389
:1001700087E891E09F938F93A7D4CE018F5E9D4F28
:100180007C015C0190E1A90EB11C0FB6F894DEBFB2
:100190000FBECDBF93E9C92E91E0D92EF701819111
:1001A0007F011F928F93DF92CF928ED40F900F908A
:1001B0000F900F90EA14FB0489F787E091E09F937A
:1001C0008F9382D489E991E09F938F937DD46801C6
:1001D000F0E1CF0ED11C0F900F900F900F9083E99C
:1001E000E82E81E0F82EF80181918F011F928F9304
:1001F000FF92EF9269D40F900F900F900F900C1513
:100200001D0589F787E091E09F938F935DD48FEF71
:1002100084B92D9A0F900F9010E285B1812785B98E
:1002200068EE73E080E090E0EFD2F7CF2A9A08956D
:100230001F93CF93DF932A9A8FEF2FD32A98C4EF7F
:10024000D1E08FEF2AD3182F61E070E080E090E0DA
:10025000DBD21F3F31F02197A1F7DF91CF911F91A2
:10026000E5CFDF91CF911F910895CF92DF92EF926A
:10027000FF920F931F93CF93DF931F92CDB7DEB7FB
:10028000C82E042FF52EE62ED72E122F87FF12C070
:10029000E5EAF1E0FF93EF9317D420E040E050E06F
:1002A000BA0187E3E2DF0F900F908230F0F48C2DDB
:1002B0008F77C82EBDDF8C2D8064EFD28D2DEDD2CF
:1002C0008E2DEBD28F2DE9D2802FE7D2812FE5D270
:1002D00014E611508FEF19F0E0D28F3FD1F398E080
:1002E000C91619F08983A2DF89810F90DF91CF9120
:1002F0001F910F91FF90EF90DF90CF900895AF92F4
:10030000BF92DF92EF92FF920F931F93CF93DF93F1
:1003100000D000D01F92CDB7DEB78091000181FDE3
:10032000E5C082E092D282DF82E0A0D27FDF1AE0D5
:100330008FEFB3D21150E1F71AE025E940E050E029
:10034000BA0180E092DF813041F0115041F064E663
:1003500070E080E090E058D2F0CF11110BC081E046
:10036000809300018DEA91E09F938F93ADD30F901E
:100370000F90BCC027E84AEA51E060E070E088E0F6
:1003800074DF1F928F932AEC31E03F932F938D837C
:100390009BD30F900F900F900F908D81813009F0BB
:1003A0005AC085ED91E09F938F938ED38E010F5F9E
:1003B0001F4F0F900F90780134E9A32E31E0B32E38
:1003C00044E0D42ED00E8FEF68D2F70181937F01E5
:1003D0001F928F93BF92AF9277D30F900F900F9091
:1003E0000F90DE10F0CF88EE91E09F938F936CD347
:1003F0001DDF0F900F908B81813009F093C08C81AD
:100400008A3A09F08FC08CED91E09F938F935CD373
:100410000F900F909CE2E92EFF24F3942BEEA22E76
:1004200021E0B22EF1E0EF1AF10809F47BC02FEFC2
:1004300040E050E060E070E489EA17DF882369F16A
:10044000BF92AF9241D36AE070E080E090E0DCD1EF
:100450000F900F90E7CF2FEF40E050E0BA0189EA0C
:1004600004DF823020F0FF24F39411E003C089EA16
:10047000F82E12E004E6015009F454C02FEF40E0DA
:1004800050E0BA018F2DF1DE882309F442C06AE002
:1004900070E080E090E0B8D1EECF2FEF40E050E088
:1004A000BA018AE3E2DE81113DC08DEE91E09F93B7
:1004B0008F930AD3BDDE0F900F908FEFEED1F8012E
:1004C00081938F01DE12F9CFB1DE898186FD1FC0D5
:1004D00014E01093FC018091FC01882339F0809195
:1004E00000018E7F8093000181E0C0D180910001E6
:1004F0000F900F900F900F900F90DF91CF911F9161
:100500000F91FF90EF90DF90BF90AF9008951CE0A7
:10051000E0CF2FEF40E052E060E070E080E1A5DE48
:100520008823B9F210E0D5CFEF92FF920F931F937B
:10053000CF93DF931F92CDB7DEB79091000190FD6E
:1005400035C08B01E82E9AE0F92E2FEF40E050E005
:10055000BA018E2D8ADEFA94882319F0F110F5CFB6
:1005600027C0FF2029F164DE84E6F82E8FEF95D1B5
:100570008E3F21F0FF20A9F0FA94F8CFFF2089F0F8
:100580007801005F1F4F8FEF88D1F70181937F01C2
:10059000E017F107C1F78FEF80D18F3FE1F780E0DF
:1005A00001C080E4898342DE898103C082E001C00A
:1005B00080E40F90DF91CF911F910F91FF90EF900A
:1005C00008958F929F92AF92BF92CF92DF92EF9257
:1005D000FF920F931F93CF93DF934B015C018A012E
:1005E000D22F8091000180FD05C0C1E0222319F0C7
:1005F000C0E001C0C2E08091FC0183FD07C049E07A
:10060000880C991CAA1CBB1C4A95D1F7C11147C084
:10061000D23018F431E1E32E02C022E1E22E9AE05A
:10062000F92E2FEFB501A4018E2D1FDEFA94882339
:1006300019F0F110F6CF32C0FF2081F1F9DD84E628
:10064000F82E8FEF2AD18E3F21F0FF20A1F0FA94EF
:10065000F8CFFF2081F0680158018EEFB81A8FEFB4
:100660001CD1F60181936F01EA15FB05C1F78FEFED
:1006700014D18FEF12D11E5FD15009F7F2E1EF16BE
:1006800011F0D4DD0CC02FEF40E050E0BA018CE057
:10069000ECDD8FEF02D18F3FE1F7F3CFC0E28C2F7B
:1006A000DF91CF911F910F91FF90EF90DF90CF904E
:1006B000BF90AF909F908F9008958F929F92AF922E
:1006C000BF92CF92DF92EF92FF920F931F93CF933F
:1006D000DF934B015C018A01D22F8091000180FDE4
:1006E00005C0C1E0222319F0C0E001C0C2E0809142
:1006F000000182FDC3E08091FC0183FD07C059E049
:10070000880C991CAA1CBB1C5A95D1F7C11143C077
:10071000D23028F438E1D32E4EEFC42E04C099E134
:10072000D92E2CEFC22E8AE0E82EF12C2FEFB50146
:10073000A4018D2D9ADD882329F081E0E81AF108C3
:10074000A9F728C0EF2831F173DD8C2DA6D07801F0
:100750001E5FF70181917F01A0D0E016F106C9F775
:100760008FEF9BD08FEF99D08FEF97D08FEF95D0F1
:100770008F3FE1F7D15049F7F9E1DF1611F056DD6F
:100780000AC08DEF8AD08FEF88D08FEF86D08F3F51
:10079000E1F7F5CFC0E18C2FDF91CF911F910F9141
:1007A000FF90EF90DF90CF90BF90AF909F908F9091
:1007B0000895BC0189E0B8CEBC018AE0B5CE1F9295
:1007C0000F920FB60F9211248F939F93AF93BF9305
:1007D0008091FD019091FE01A091FF01B091000276
:1007E0000196A11DB11D8093FD019093FE01A09380
:1007F000FF01B0930002BF91AF919F918F910F9035
:100800000FBE0F901F9018952091B000226020938A
:10081000B0002091B10024602093B10029EF209313
:10082000B3001092B200611571058105910541F088
:10083000B99BFECFB99A6150710981099109F3CF33
:100840001092B0001092B100089594B19C6294B9D6
:100850009DB582FB222720F9922B9DBD9CB583700C
:10086000892B8CBD8CB580658CBD08959CB59F7B14
:100870009CBD9DB59E7F9DBD9CB59C7F9CBD9DB53F
:1008800082FB222720F9922B9DBD9CB58370892B7A
:100890008CBD8CB580648CBD08958EBD0DB407FEF3
:1008A000FDCF8EB508958093C4001092C500E0EC92
:1008B000F0E08081808388E18093C100E2ECF0E089
:1008C0008081808308959091C00095FFFCCF809334
:1008D000C600089590930202809301020895DC01FE
:1008E000ED91FC9111978081883649F0873761F04E
:1008F000823669F43196ED93FC9388E00895319641
:10090000ED93FC9380E108953196ED93FC9380E2A2
:1009100008958F929F92AF92BF92CF92DF92EF9203
:10092000FF920F931F93CF93DF938C01C42F6A30F4
:1009300039F0603109F476C0623009F08FC06DC0C3
:100940002AE0C22ED12CE12CF12CD1E04C01990FE0
:10095000AA08BB08C501B401A7019601C7D1232B82
:10096000242B252B49F0DF5FAAE0B0E0A701960118
:10097000DFD16B017C01EECFC1110BC0C701B60105
:100980002AE030E040E050E0B1D169017A01CD2F9A
:1009900005C094E6C92ED12CE12CF12C8AE0882EDA
:1009A000912CA12CB12CCC2309F458C0B801012EF4
:1009B000000C880B990BA701960198D1D22F422FDA
:1009C000220F550B660B770B4C9DC0014D9D900D72
:1009D0005C9D900D1124081B190BC701B601A501E0
:1009E000940184D169017A01E0910102F09102023F
:1009F00080E38D0F0995C150D6CFC150C8010C2E90
:100A000002C0959587950A94E2F780FF09C081E3BB
:100A1000E0910102F09102020995C111EECF1EC0D2
:100A200080E3F6CFD42FD695D695DF5FD130B1F0E5
:100A3000C45098010C2E02C0359527950A94E2F710
:100A40002F702A3010F480E301C087E3820FE09119
:100A50000102F09102020995D150E8CFDF91CF91C8
:100A60001F910F91FF90EF90DF90CF90BF90AF90CC
:100A70009F908F900895EF92FF920F931F93CF93C3
:100A8000DF93EC017C0180E8E80EF11C8E01888187
:100A9000882399F0E0910102F091020209952196D4
:100AA000F80180818A3031F4E0910102F091020274
:100AB0008DE00995CE15DF0549F7DF91CF911F91A4
:100AC0000F91FF90EF9008952F923F924F925F9277
:100AD0006F927F928F929F92AF92BF92CF92DF924E
:100AE000EF92FF920F931F93CF93DF931F92CDB797
:100AF000DEB78E01085E1F4FEE89FF89CF01019698
:100B00009F8B8E8B90819532A1F0992309F4DAC0E6
:100B1000E0910102F0910202892F99830995998150
:100B20009A3051F7E0910102F09102028DE00995AF
:100B3000E3CFCF0102969F8B8E8B8181843621F18A
:100B40008CF48236B1F1833609F0B7C0780182E0C7
:100B5000E80EF11CE0910102F0910202D8018C91A3
:100B600009955EC0833739F0883709F43DC0863671
:100B700009F0A3C057C07801B2E0EB0EF11CF801F8
:100B80008081918178DF4CC07801F2E0EF0EF11C9A
:100B9000D8010D911C9117FF09C0E0910102F0915D
:100BA00002028DE2099511950195110940E06AE074
:100BB00035C0CE01469693DE482F7801B2E0EB0EA9
:100BC000F11CF80100811181E0910102F091020213
:100BD00080E349830995E0910102F091020282E6E7
:100BE0000995498162E01AC0CE01469678DE482F09
:100BF0007801F2E0EF0EF11CD8010D911C91E0910B
:100C00000102F091020280E349830995E09101021B
:100C1000F091020288E70995498160E1C80179DE17
:100C200087016ACF1801B4E02B0E311CF801408017
:100C3000518062807380C301B201FCD04B015C0122
:100C40008B01072E000C880B990B27D19B01AC015F
:100C5000C301B20186D020E030E04AE754E4CDD1B0
:100C6000E9D06B017C0120E030E0A901C301B201B1
:100C7000DDD087FF12C0E0910102F09102028DE207
:100C800009950027112708191909F094E094D094C8
:100C9000C094C11CD11CE11CF11C40E06AE0C801F9
:100CA00038DEE0910102F09102028EE2099543E004
:100CB0006AE0C6012EDE81011FCFE0910102F091B2
:100CC000020235CF0F90DF91CF911F910F91FF90CE
:100CD000EF90DF90CF90BF90AF909F908F907F90DC
:100CE0006F905F904F903F902F900895A1E21A2E41
:100CF000AA1BBB1BFD010DC0AA1FBB1FEE1FFF1FC0
:100D0000A217B307E407F50720F0A21BB30BE40B0F
:100D1000F50B661F771F881F991F1A9469F7609556
:100D20007095809590959B01AC01BD01CF01089510
:100D300009D0A59F900DB49F900DA49F800D911D8B
:100D400011240895A29FB001B39FC001A39F700D0D
:100D5000811D1124911DB29F700D811D1124911DC3
:100D600008955058BB27AA270ED00DC1FED030F0F1
:100D700003D120F031F49F3F11F41EF4F3C00EF4C0
:100D8000E095E7FBE9C0E92F0FD180F3BA176207BE
:100D900073078407950718F071F49EF527C10EF4C8
:100DA000E0950B2EBA2FA02D0B01B90190010C017B
:100DB000CA01A0011124FF27591B99F0593F50F493
:100DC000503E68F11A16F040A22F232F342F4427EB
:100DD000585FF3CF469537952795A795F0405395E3
:100DE000C9F77EF41F16BA0B620B730B840BBAF0B3
:100DF0009150A1F0FF0FBB1F661F771F881FC2F71E
:100E00000EC0BA0F621F731F841F48F48795779531
:100E10006795B795F7959E3F08F0B3CF9395880FE8
:100E200008F09927EE0F97958795089571D008F4EB
:100E300081E0089504D06894B111D9C00895BCD060
:100E400088F09F5790F0B92F9927B751A0F0D1F0B3
:100E5000660F771F881F991F1AF0BA95C9F712C03D
:100E6000B13081F0C3D0B1E00895C0C0672F782FB2
:100E70008827B85F39F0B93FCCF3869577956795A9
:100E8000B395D9F73EF490958095709561957F4F15
:100E90008F4F9F4F0895E89409C097FB3EF49095BB
:100EA0008095709561957F4F8F4F9F4F9923A9F043
:100EB000F92F96E9BB279395F695879577956795D2
:100EC000B795F111F8CFFAF4BB0F11F460FF1BC016
:100ED0006F5F7F4F8F4F9F4F16C0882311F096E9A9
:100EE00011C0772321F09EE8872F762F05C0662357
:100EF00071F096E8862F70E060E02AF09A95660F10
:100F0000771F881FDAF7880F9695879597F90895C8
:100F1000990F0008550FAA0BE0E8FEEF161617060A
:100F2000E807F907C0F012161306E407F50798F072
:100F3000621B730B840B950B39F40A2661F0232B8B
:100F4000242B252B21F408950A2609F4A140A69507
:100F50008FEF811D811D089597F99F6780E870E0EC
:100F600060E008959FEF80EC089500240A9416161F
:100F7000170618060906089500240A941216130687
:100F8000140605060895092E0394000C11F4882315
:100F900052F0BB0F40F4BF2B11F460FF04C06F5F31
:100FA0007F4F8F4F9F4F089557FD9058440F551F07
:100FB00059F05F3F71F04795880F97FB991F61F0DB
:100FC0009F3F79F087950895121613061406551F52
:100FD000F2CF4695F1DF08C0161617061806991FBE
:100FE000F1CF86957105610508940895E894BB27B3
:100FF00066277727CB0197F908950BD0C4CFB5DFCB
:1010000028F0BADF18F0952309F0A6CFABCF112452
:10101000EECFCADFA0F3959FD1F3950F50E0551F97
:10102000629FF001729FBB27F00DB11D639FAA273D
:10103000F00DB11DAA1F649F6627B00DA11D661F8C
:10104000829F2227B00DA11D621F739FB00DA11DAD
:10105000621F839FA00D611D221F749F3327A00D67
:10106000611D231F849F600D211D822F762F6A2F03
:1010700011249F5750408AF0E1F088234AF0EE0F88
:10108000FF1FBB1F661F771F881F91505040A9F795
:101090009E3F510570F060CFAACF5F3FECF3983EC2
:1010A000DCF3869577956795B795F795E7959F5FFC
:1010B000C1F7FE2B880F911D9695879597F9089596
:0410C000F894FFCFD2
:1010C4000153544152543A0A005359532D3E205768
:1010D400524954455F4E4F5F494E49543A205B256F
:1010E40078625D0A005359532D3E20524541445FB6
:1010F4004E4F5F494E49543A205B2578625D0A00A1
:101104005359532D3E2053445F494E49543A205B72
:101114002578625D0A005359532D3E205752495495
:10112400455F494E49543A205B2578625D0A005375
:1011340059532D3E20524541445F494E49543A206B
:101144005B2578625D0A005359532D3E2043534476
:101154003A20002025786220005359532D3E204325
:1011640049443A20002D3E41434D440A005359530B
:101174002D3E204D4D435F434D443020636F6D6DD4
:10118400616E64206661696C0A00434D44385B25D6
:1011940078625D0A00434D44385B2000564F4C543E
:1011A4004147455B474F4F445D0A002A0041434D88
:0C11B4004434315B444F4E455D0A00009E
:00000001FF
