:1000000033C000004CC000004AC0000048C00000DF
:1000100046C0000044C0000042C0000019C30000F8
:100020003EC000003CC000003AC0000038C00000E4
:1000300036C0000034C0000032C0000030C00000F4
:100040002EC000002CC000002AC0000028C0000004
:1000500026C0000024C0000022C0000020C0000014
:100060001EC000001CC0000011241FBECFEFD8E04E
:10007000DEBFCDBF13E0A0E0B1E0E2E6FFE002C0EA
:1000800005900D92AA3AB107D9F723E0AAEAB3E0A6
:1000900001C01D92A03BB207E1F702D060C7B0CF0C
:1000A000CF93DF93CDB7DEB7D2500FB6F894DEBF53
:1000B0000FBECDBF88E090E045D382EB93E059D3EB
:1000C0002CD100E011E0882391F01F930F934BD4C3
:1000D00086E491E09F938F9346D41F930F9343D46C
:1000E0000F900F900F900F900F900F90B4C01F9330
:1000F0000F9339D480E791E09F938F9334D41F936B
:100100000F9331D486E991E09F938F932CD41F9362
:100110000F9329D4CE0101967C010FB6F894DEBF6F
:100120000FBECDBFFC0180E090E081930196811568
:1001300022E09207D1F7A7016EEB71E080E090E03A
:10014000D5D100E011E0811106C01F930F930BD4AD
:1001500089EA91E005C01F930F9305D488EC91E0E4
:100160009F938F9300D41F930F93FDD30F900F9005
:100170000F900F900F900F90CE018F5F9D4FF70162
:100180002FEF2193E817F907E1F760ED77E080E0C2
:1001900090E083D200E011E01F930F93E4D38BEE45
:1001A00091E09F938F93DFD31F930F93DCD3A7012D
:1001B0006EEB71E080E090E050D10F900F900F90C7
:1001C0000F900F900F9081113AC08DEF91E09F93A7
:1001D0008F93C9D31F930F93C6D38DE192E09F9362
:1001E0008F93C1D30F900F900F900F900F900F909F
:1001F00000E010E086E7A82E82E0B82E94E2C92E37
:1002000092E0D92EC80187709927892B29F4BF92D3
:10021000AF92A9D30F900F90F70181917F011F92A8
:100220008F93DF92CF929FD30F5F1F4F0F900F904E
:100230000F900F900115F2E01F0721F70CC08AE222
:1002400092E09F938F938FD31F930F938CD30F9034
:100250000F900F900F908FEF84B92D9A10E285B117
:10026000812785B968EE73E080E090E016D2F7CF81
:100270002A9A8FEF5BD22A9808950F931F93CF93FA
:10028000DF9300D000D01F92CDB7DEB7082F2D83AB
:100290004C835B836A837983EBDFEEE4F2E0FF93C8
:1002A000EF9361D3802F806447D27981872F44D226
:1002B0006A81862F41D25B81852F3ED24C81842F6B
:1002C0003BD22D81822F38D20F900F9014E611501F
:1002D0008FEF19F031D28F3FD1F31F928F931F927E
:1002E0000F9328E532E03F932F9389833CD32A9ADA
:1002F00028E732E03F932F9336D30FB6F894DEBF52
:100300000FBECDBF89810F900F900F900F900F906F
:10031000DF91CF911F910F910895FF920F931F933B
:10032000CF93DF9380E091E09F938F931CD383E87A
:1003300092E09F938F9317D387EA92E09F938F93D6
:1003400012D382E0CBD181EC92E09F938F930BD3B9
:100350002A9A87EC92E09F938F9305D38DB79EB72F
:100360000A960FB6F8949EBF0FBE8DBFCAE08FEFFE
:10037000E3D1C150E1F781EC92E09F938F93F3D2E8
:100380008BEE92E09F938F93EED20F900F900F9091
:100390000F9025E940E050E0BA0180E06EDF813047
:1003A00051F0CA3009F43FC0CF5F64E670E080E0EE
:1003B00090E073D1EECFCA30B1F11F921F9289E065
:1003C00093E09F938F93CFD20F900F900F900F9049
:1003D000C0E0D0E009E013E02FEF40E050E0BA01C8
:1003E00081E04BDF882399F02196C531D10591F04A
:1003F000DF93CF931F930F93B6D264E670E080E053
:1004000090E04BD10F900F900F900F90E5CF9AE0B6
:10041000C91759F02FEF40E052E060E070E080E152
:100420002CDFC0E003C0C1E001C0C2E081E067D1C1
:1004300080E193E09F938F9396D280E091E09F9329
:100440008F9391D20F900F900F900F908C2FDF9180
:10045000CF911F910F91FF900895CF92DF92EF926D
:10046000FF920F931F93CF93DF938A016B017C015F
:1004700089E0CC0CDD1CEE1CFF1C8A95D1F7CAE08C
:100480002FEFB701A60181E1F8DEC150882319F0F2
:10049000C111F6CF21C0CC23F9F0EADEC4E68FEF1C
:1004A0004BD18E3F21F0CC23A1F0C150F8CFCC230B
:1004B00081F0E80178018EEFF81A8FEF3DD1899332
:1004C000CE15DF05D1F78FEF37D18FEF35D180E033
:1004D00001C082E02A9A01C081E0DF91CF911F9193
:1004E0000F91FF90EF90DF90CF900895AF92BF9261
:1004F000CF92DF92EF92FF920F931F93CF93DF93F0
:100500005A016B017C0159E0CC0CDD1CEE1CFF1C78
:100510005A95D1F7CAE0D0E02FEFB701A60188E1E4
:10052000ACDE882319F02197B9F785C0CD2B09F4EB
:1005300082C082E393E09F938F9315D22A988EEF27
:10054000FBD08AE493E09F938F930DD285010F90A7
:100550000F900F900F90C0E0D0E03BE5C32E33E04A
:10056000D32E44E2E42E42E0F42ECE018770992788
:10057000892B79F4CE0123E0969587952A95E1F7AA
:100580009F938F93DF92CF92EED10F900F900F90A9
:100590000F905801F80181918F011F928F93FF9264
:1005A000EF92E1D1F5018081C7D021960F900F9095
:1005B0000F900F90C115F2E0DF07B9F686E792E0E1
:1005C0009F938F93D0D181E693E09F938F93CBD16C
:1005D0008FEFB2D08FEFB0D08FEFAED08F710F9082
:1005E0000F900F900F90853049F087E793E09F932D
:1005F0008F93B9D10F900F90C2E001C0C0E08FE897
:1006000093E09F938F93AFD10F900F9007EA13E081
:100610008FEF92D08F3F31F01F930F93A4D10F90A3
:100620000F90F6CF86E792E09F938F939CD12A9A02
:100630000F900F9001C0C1E08C2FDF91CF911F91DF
:100640000F91FF90EF90DF90CF90BF90AF90089503
:100650001F920F920FB60F9211248F939F93AF9317
:10066000BF938091AA039091AB03A091AC03B0918A
:10067000AD030196A11DB11D8093AA039093AB0316
:10068000A093AC03B093AD03BF91AF919F918F91B5
:100690000F900FBE0F901F9018952091B000226010
:1006A0002093B0002091B10024602093B10029EF85
:1006B0002093B3001092B200611571058105910578
:1006C00041F0B99BFECFB99A615071098109910936
:1006D000F3CF1092B0001092B100089594B19C62D3
:1006E00094B99DB582FB222720F9922B9DBD9CB524
:1006F0008370892B8CBD8CB580658CBD08959CB5AD
:100700009F7B9CBD9DB59E7F9DBD9CB59C7F9CBDE8
:100710009DB582FB222720F9922B9DBD9CB583704D
:10072000892B8CBD8CB580648CBD08958EBD0DB4B5
:1007300007FEFDCF8EB508958EBD0DB407FEFDCF2B
:100740008EB508958093C4001092C500E0ECF0E0EF
:100750008081808388E18093C100E2ECF0E08081B9
:10076000808308959091C00095FFFCCF8093C600D0
:1007700008959093AF038093AE030895DC01ED914B
:10078000FC9111978081883649F0873761F0823675
:1007900069F43196ED93FC9388E008953196ED93DA
:1007A000FC9380E108953196ED93FC9380E20895E7
:1007B0008F929F92AF92BF92CF92DF92EF92FF9271
:1007C0000F931F93CF93DF938C01C42F6A3039F0BE
:1007D000603109F476C0623009F08FC06DC02AE044
:1007E000C22ED12CE12CF12CD1E04C01990FAA089A
:1007F000BB08C501B401A7019601C7D1232B242B47
:10080000252B49F0DF5FAAE0B0E0A7019601DFD118
:100810006B017C01EECFC1110BC0C701B6012AE00C
:1008200030E040E050E0B1D169017A01CD2F05C040
:1008300094E6C92ED12CE12CF12C8AE0882E912C43
:10084000A12CB12CCC2309F458C0B801012E000C06
:10085000880B990BA701960198D1D22F422F220F16
:10086000550B660B770B4C9DC0014D9D900D5C9D0B
:10087000900D1124081B190BC701B601A5019401A5
:1008800084D169017A01E091AE03F091AF0380E376
:100890008D0F0995C150D6CFC150C8010C2E02C092
:1008A000959587950A94E2F780FF09C081E3E0916E
:1008B000AE03F091AF030995C111EECF1EC080E3E6
:1008C000F6CFD42FD695D695DF5FD130B1F0C45096
:1008D00098010C2E02C0359527950A94E2F72F70E7
:1008E0002A3010F480E301C087E3820FE091AE0369
:1008F000F091AF030995D150E8CFDF91CF911F91CF
:100900000F91FF90EF90DF90CF90BF90AF909F90AE
:100910008F900895EF92FF920F931F93CF93DF93E1
:10092000EC017C0180E8E80EF11C8E0188818823AF
:1009300099F0E091AE03F091AF0309952196F8018B
:1009400080818A3031F4E091AE03F091AF038DE005
:100950000995CE15DF0549F7DF91CF911F910F91D2
:10096000FF90EF9008952F923F924F925F926F9277
:100970007F928F929F92AF92BF92CF92DF92EF922F
:10098000FF920F931F93CF93DF931F92CDB7DEB7E4
:100990008E01085E1F4FEE89FF89CF0101969F8B64
:1009A0008E8B90819532A1F0992309F4DAC0E09101
:1009B000AE03F091AF03892F9983099599819A30FD
:1009C00051F7E091AE03F091AF038DE00995E3CFCD
:1009D000CF0102969F8B8E8B8181843621F18CF41E
:1009E0008236B1F1833609F0B7C0780182E0E80EB3
:1009F000F11CE091AE03F091AF03D8018C91099501
:100A00005EC0833739F0883709F43DC0863609F077
:100A1000A3C057C07801B2E0EB0EF11CF801808151
:100A2000918178DF4CC07801F2E0EF0EF11CD80123
:100A30000D911C9117FF09C0E091AE03F091AF0337
:100A40008DE2099511950195110940E06AE035C0E4
:100A5000CE01469693DE482F7801B2E0EB0EF11CF2
:100A6000F80100811181E091AE03F091AF0380E3C2
:100A700049830995E091AE03F091AF0382E60995B1
:100A8000498162E01AC0CE01469678DE482F78018F
:100A9000F2E0EF0EF11CD8010D911C91E091AE0334
:100AA000F091AF0380E349830995E091AE03F091A3
:100AB000AF0388E70995498160E1C80179DE8701C4
:100AC0006ACF1801B4E02B0E311CF8014080518030
:100AD00062807380C301B201FCD04B015C018B01C9
:100AE000072E000C880B990B27D19B01AC01C30189
:100AF000B20186D020E030E04AE754E4CDD1E9D01D
:100B00006B017C0120E030E0A901C301B201DDD01E
:100B100087FF12C0E091AE03F091AF038DE209951B
:100B20000027112708191909F094E094D094C09473
:100B3000C11CD11CE11CF11C40E06AE0C80138DE98
:100B4000E091AE03F091AF038EE2099543E06AE0D5
:100B5000C6012EDE81011FCFE091AE03F091AF03FD
:100B600035CF0F90DF91CF911F910F91FF90EF90B4
:100B7000DF90CF90BF90AF909F908F907F906F90BD
:100B80005F904F903F902F900895A1E21A2EAA1BDC
:100B9000BB1BFD010DC0AA1FBB1FEE1FFF1FA2172D
:100BA000B307E407F50720F0A21BB30BE40BF50B2A
:100BB000661F771F881F991F1A9469F760957095B3
:100BC000809590959B01AC01BD01CF01089509D09E
:100BD000A59F900DB49F900DA49F800D911D112491
:100BE0000895A29FB001B39FC001A39F700D811D06
:100BF0001124911DB29F700D811D1124911D089526
:100C00005058BB27AA270ED00DC1FED030F003D11B
:100C100020F031F49F3F11F41EF4F3C00EF4E09580
:100C2000E7FBE9C0E92F0FD180F3BA17620773071A
:100C30008407950718F071F49EF527C10EF4E0952E
:100C40000B2EBA2FA02D0B01B90190010C01CA0186
:100C5000A0011124FF27591B99F0593F50F4503E31
:100C600068F11A16F040A22F232F342F4427585F23
:100C7000F3CF469537952795A795F0405395C9F73B
:100C80007EF41F16BA0B620B730B840BBAF09150F3
:100C9000A1F0FF0FBB1F661F771F881FC2F70EC092
:100CA000BA0F621F731F841F48F487957795679565
:100CB000B795F7959E3F08F0B3CF9395880F08F04E
:100CC0009927EE0F97958795089571D008F481E0E4
:100CD000089504D06894B111D9C00895BCD088F0AB
:100CE0009F5790F0B92F9927B751A0F0D1F0660F18
:100CF000771F881F991F1AF0BA95C9F712C0B13033
:100D000081F0C3D0B1E00895C0C0672F782F882745
:100D1000B85F39F0B93FCCF3869577956795B39571
:100D2000D9F73EF490958095709561957F4F8F4FE0
:100D30009F4F0895E89409C097FB3EF490958095E5
:100D4000709561957F4F8F4F9F4F9923A9F0F92F91
:100D500096E9BB279395F695879577956795B7950F
:100D6000F111F8CFFAF4BB0F11F460FF1BC06F5FF5
:100D70007F4F8F4F9F4F16C0882311F096E911C007
:100D8000772321F09EE8872F762F05C0662371F028
:100D900096E8862F70E060E02AF09A95660F771F3C
:100DA000881FDAF7880F9695879597F90895990F18
:100DB0000008550FAA0BE0E8FEEF16161706E80725
:100DC000F907C0F012161306E407F50798F0621B46
:100DD000730B840B950B39F40A2661F0232B242B1B
:100DE000252B21F408950A2609F4A140A6958FEF3A
:100DF000811D811D089597F99F6780E870E060E08C
:100E000008959FEF80EC089500240A9416161706A3
:100E100018060906089500240A94121613061406EB
:100E200005060895092E0394000C11F4882352F04E
:100E3000BB0F40F4BF2B11F460FF04C06F5F7F4F06
:100E40008F4F9F4F089557FD9058440F551F59F0ED
:100E50005F3F71F04795880F97FB991F61F09F3FA7
:100E600079F087950895121613061406551FF2CFD0
:100E70004695F1DF08C0161617061806991FF1CF20
:100E800086957105610508940895E894BB27662747
:100E90007727CB0197F908950BD0C4CFB5DF28F0A1
:100EA000BADF18F0952309F0A6CFABCF1124EECF0F
:100EB000CADFA0F3959FD1F3950F50E0551F629FB5
:100EC000F001729FBB27F00DB11D639FAA27F00DA3
:100ED000B11DAA1F649F6627B00DA11D661F829FCA
:100EE0002227B00DA11D621F739FB00DA11D621FAF
:100EF000839FA00D611D221F749F3327A00D611DCC
:100F0000231F849F600D211D822F762F6A2F1124AD
:100F10009F5750408AF0E1F088234AF0EE0FFF1F00
:100F2000BB1F661F771F881F91505040A9F79E3F37
:100F3000510570F060CFAACF5F3FECF3983EDCF331
:100F4000869577956795B795F795E7959F5FC1F774
:100F5000FE2B880F911D9695879597F90895F89423
:020F6000FFCFC1
:100F62007E7E7E7E7E7E7E7E7E7E7E7E7E7E7E7E9F
:100F72007E7E7E7E7E7E7E7E7E7E7E7E7E7E7E7E8F
:100F82007E7E7E7E7E7E7E7E7E7E7E7E7E7E7E7E7F
:100F92007E7E7E7E7E7E7E7E7E7E7E7E7E7E7E7E6F
:100FA2007E7E7E7E0A005344204341524420494EB5
:100FB200495449414C495A4154494F4E20495320C2
:100FC2004E4F54205355434345535346554C0A0004
:100FD2005344204341524420494E495449414C49CB
:100FE2005A4154494F4E2049532053554343455388
:100FF2005346554C0A0057524954452053454354D1
:101002004F5220544553540A0057524954452054D4
:101012004F20534543544F52204953205355434385
:1010220045535346554C0A00575249544520544F94
:1010320020534543544F52204953204E4F5420537E
:1010420055434345535346554C0A005245414420AB
:10105200534543544F5220544553540A005245417C
:10106200442046524F4D20534543544F522049533A
:10107200205355434345535346554C0A004441546B
:10108200413A0A0020257862200052454144204618
:10109200524F4D20534543544F52204953204E4FF7
:1010A20054205355434345535346554C0A00092097
:1010B20053535F4C4F570A000920434D44205B2590
:1010C20078625D20202D2D2D20737461747573203C
:1010D2005B2578625D200A00092053535F48494727
:1010E200480A005359532D3E2053442063617264D1
:1010F20020626567696E20696E697469616C697ADC
:101102006174696F6E0A005359532D3E20496E690E
:101112007469616C697A6520535049202D2D2D2008
:1011220000444F4E450A005359532D3E2053454E1D
:10113200442038302064756D6D7920434C4B20700B
:10114200756C736573202D2D2D20005359532D3E40
:101152002053656E6420636F6D6D616E64205B5316
:10116200445F434D444F5D0A000A0A0925640A00A0
:101172005359532D3E205344206361726420696E9B
:10118200697469616C697A6174696F6E20656E64F5
:101192000A005359532D3E2053454E442053544187
:1011A200525420544F4B454E0A005359532D3E2062
:1011B20053454E4420444154410A000A25642E20DE
:1011C200005359532D3E2053454E442044554D4D16
:1011D20059204352430A0043484543482057524945
:1011E20054452044415441204552524F520A005323
:1011F20059532D3E2057414954205748494C4520C8
:0A120200425553593A20002A00001B
:00000001FF
