:1000000033C000004CC000004AC0000048C00000DF
:1000100046C0000044C0000042C00000BAC2000058
:100020003EC000003CC000003AC0000038C00000E4
:1000300036C0000034C0000032C0000030C00000F4
:100040002EC000002CC000002AC0000028C0000004
:1000500026C0000024C0000022C0000020C0000014
:100060001EC000001CC0000011241FBECFEFD8E04E
:10007000DEBFCDBF12E0A0E0B1E0E8E9FEE002C0E3
:1000800005900D92AC37B107D9F722E0ACE7B2E0AA
:1000900001C01D92A338B207E1F702D0FBC6B0CF72
:1000A000CF93DF93CDB7DEB7C150D2400FB6F894EF
:1000B000DEBF0FBECDBF88E090E0DFD28DE493E0DD
:1000C000F3D228D11F928F9321E031E03F932F93F9
:1000D000CF5FDD4F8883C150D240E0D30F900F90A7
:1000E0000F900F90CF5FDD4F8881C150D2400AE062
:1000F00011E0882391F01F930F93D0D380E591E016
:100100009F938F93CBD31F930F93C8D30F900F90D0
:100110000F900F900F900F90B4C01F930F93BED30A
:100120008AE791E09F938F93B9D31F930F93B6D330
:1001300080EA91E09F938F93B1D31F930F93AED337
:10014000CE0101967C010FB6F894DEBF0FBECDBF85
:10015000FC0180E090E081930196811522E09207F6
:10016000D1F7A7016EEB71E080E090E092D10AE058
:1001700011E0811106C01F930F9390D383EB91E0A0
:1001800005C01F930F938AD382ED91E09F938F93C5
:1001900085D31F930F9382D30F900F900F900F90E2
:1001A0000F900F90CE018F5F9D4FF7012FEF21939E
:1001B000E817F907E1F760ED77E080E090E00ED214
:1001C0000AE011E01F930F9369D385EF91E09F93AD
:1001D0008F9364D31F930F9361D3A7016EEB71E0EC
:1001E00080E090E001D10F900F900F900F900F9052
:1001F0000F9081113AC087E092E09F938F934ED386
:100200001F930F934BD387E292E09F938F9346D334
:100210000F900F900F900F900F900F9000E010E054
:100220008CE2A82E82E0B82E9EE2C92E92E0D92E52
:10023000C80187709927892B29F4BF92AF922ED3DA
:100240000F900F90F70181917F011F928F93DF92A2
:10025000CF9224D30F5F1F4F0F900F900F900F90EE
:100260000115F2E01F0721F70CC084E392E09F9391
:100270008F9314D31F930F9311D30F900F900F9060
:100280000F908FEF84B92D9A10E285B1812785B93F
:1002900068EE73E080E090E0A1D1F7CF2A9A08954C
:1002A0002A9A8FEFE4D12A9808951F93CF93DF9372
:1002B00000D000D000D0CDB7DEB72E834D835C8355
:1002C0006B837A838983ECDF89818064D0D17A81E2
:1002D000872FCDD16B81862FCAD15C81852FC7D165
:1002E0004D81842FC4D12E81822FC1D114E61150AB
:1002F0008FEF19F0BCD18F3FD1F38983CFDF898194
:1003000026960FB6F894DEBF0FBECDBFDF91CF911A
:100310001F9108951F93CF93DF938091000181FD7A
:100320005DC082E07CD1BADF82E08AD1B7DFCAE06B
:100330008FEF9DD1C150E1F7CAE025E940E050E0E0
:10034000BA0180E0B2DF813041F0C15041F064E693
:1003500070E080E090E042D1F0CFC1110BC081E0AD
:100360008093000188E592E09F938F9397D20F903E
:100370000F9034C02FEF40E050E0BA0189EA95DFDA
:10038000823018F011E0C1E002C019EAC2E0D4E600
:10039000D150B1F02FEF40E050E0BA01812F85DF5E
:1003A000882331F06AE070E080E090E017D1F0CF70
:1003B0002FEF40E052E060E070E080E176DF8111F5
:1003C000C0E0C0937C0280917C02882339F0809148
:1003D00000018E7F8093000181E032D18091000185
:1003E000DF91CF911F910895BF92CF92DF92EF924C
:1003F000FF920F931F93CF93DF931F92CDB7DEB77A
:100400008A016B017C0199E0CC0CDD1CEE1CFF1C09
:100410009A95D1F72AE0B22E2FEFB701A60181E11C
:1004200044DFBA94882319F0B110F6CF26C0BB2060
:1004300021F136DF84E6F82E8FEF19D18E3F21F0BF
:10044000FF20B1F0FA94F8CFFF2091F06801780115
:100450008EEFF81A8FEF0BD1F60181936F01EE1535
:10046000FF05C1F78FEF03D18FEF01D180E001C00D
:1004700082E0898313DF898101C081E00F90DF91E1
:10048000CF911F910F91FF90EF90DF90CF90BF9091
:100490000895AF92BF92CF92DF92EF92FF920F93A7
:1004A0001F93CF93DF935A016B017C0159E0CC0C71
:1004B000DD1CEE1CFF1C5A95D1F7CAE0D0E02FEFEF
:1004C000B701A60188E1F1DE882319F02197B9F779
:1004D00053C0CD2B09F450C0E3DE8EEFC8D08501A8
:1004E000C0E0D0E035E7C32E32E0D32E4EE2E42E5A
:1004F00042E0F42ECE0187709927892B79F4CE0142
:1005000023E0969587952A95E1F79F938F93DF9245
:10051000CF92C4D10F900F900F900F905801F80117
:1005200081918F011F928F93FF92EF92B7D1F501C6
:1005300080819DD021960F900F900F900F90C11544
:10054000F2E0DF07B9F68CE292E09F938F93A6D199
:100550008FEF8DD08FEF8BD08FEF89D08F710F9071
:100560000F90853011F0C2E001C0C0E08FEF7FD066
:100570008F3FE1F793DE01C0C1E08C2FDF91CF9177
:100580001F910F91FF90EF90DF90CF90BF90AF90B1
:1005900008951F920F920FB60F9211248F939F937D
:1005A000AF93BF9380917D0290917E02A0917F02D4
:1005B000B09180020196A11DB11D80937D029093A0
:1005C0007E02A0937F02B0938002BF91AF919F9172
:1005D0008F910F900FBE0F901F9018952091B00033
:1005E00022602093B0002091B10024602093B100DC
:1005F00029EF2093B3001092B200611571058105B7
:10060000910541F0B99BFECFB99A615071098109FA
:100610009109F3CF1092B0001092B100089594B1F7
:100620009C6294B99DB582FB222720F9922B9DBD37
:100630009CB58370892B8CBD8CB580658CBD08956D
:100640009CB59F7B9CBD9DB59E7F9DBD9CB59C7FB1
:100650009CBD9DB582FB222720F9922B9DBD9CB5A8
:100660008370892B8CBD8CB580648CBD08958EBD44
:100670000DB407FEFDCF8EB508958093C40010928F
:10068000C500E0ECF0E08081808388E18093C100C8
:10069000E2ECF0E08081808308959091C00095FFA6
:1006A000FCCF8093C60008959093820280938102CC
:1006B0000895DC01ED91FC9111978081883649F015
:1006C000873761F0823669F43196ED93FC9388E0C8
:1006D00008953196ED93FC9380E108953196ED9362
:1006E000FC9380E208958F929F92AF92BF92CF9237
:1006F000DF92EF92FF920F931F93CF93DF938C01C2
:10070000C42F6A3039F0603109F476C0623009F0E4
:100710008FC06DC02AE0C22ED12CE12CF12CD1E08B
:100720004C01990FAA08BB08C501B401A7019601A5
:10073000C7D1232B242B252B49F0DF5FAAE0B0E0A3
:10074000A7019601DFD16B017C01EECFC1110BC077
:10075000C701B6012AE030E040E050E0B1D16901C4
:100760007A01CD2F05C094E6C92ED12CE12CF12CB5
:100770008AE0882E912CA12CB12CCC2309F458C0EE
:10078000B801012E000C880B990BA701960198D196
:10079000D22F422F220F550B660B770B4C9DC001B9
:1007A0004D9D900D5C9D900D1124081B190BC701E8
:1007B000B601A501940184D169017A01E091810219
:1007C000F091820280E38D0F0995C150D6CFC150C0
:1007D000C8010C2E02C0959587950A94E2F780FF18
:1007E00009C081E3E0918102F09182020995C11173
:1007F000EECF1EC080E3F6CFD42FD695D695DF5F1F
:10080000D130B1F0C45098010C2E02C03595279517
:100810000A94E2F72F702A3010F480E301C087E3D6
:10082000820FE0918102F09182020995D150E8CFC8
:10083000DF91CF911F910F91FF90EF90DF90CF90BC
:10084000BF90AF909F908F900895EF92FF920F937B
:100850001F93CF93DF93EC017C0180E8E80EF11C3D
:100860008E018881882399F0E0918102F0918202C3
:1008700009952196F80180818A3031F4E091810256
:10088000F09182028DE00995CE15DF0549F7DF91E1
:10089000CF911F910F91FF90EF9008952F923F926B
:1008A0004F925F926F927F928F929F92AF92BF9280
:1008B000CF92DF92EF92FF920F931F93CF93DF932C
:1008C0001F92CDB7DEB78E01085E1F4FEE89FF89FC
:1008D000CF0101969F8B8E8B90819532A1F0992349
:1008E00009F4DAC0E0918102F0918202892F9983A4
:1008F000099599819A3051F7E0918102F091820235
:100900008DE00995E3CFCF0102969F8B8E8B81817D
:10091000843621F18CF48236B1F1833609F0B7C008
:10092000780182E0E80EF11CE0918102F0918202F0
:10093000D8018C9109955EC0833739F0883709F466
:100940003DC0863609F0A3C057C07801B2E0EB0E77
:10095000F11CF8018081918178DF4CC07801F2E0D0
:10096000EF0EF11CD8010D911C9117FF09C0E09109
:100970008102F09182028DE209951195019511098C
:1009800040E06AE035C0CE01469693DE482F7801FC
:10099000B2E0EB0EF11CF80100811181E0918102BF
:1009A000F091820280E349830995E0918102F09100
:1009B000820282E60995498162E01AC0CE0146961C
:1009C00078DE482F7801F2E0EF0EF11CD8010D918E
:1009D0001C91E0918102F091820280E349830995A4
:1009E000E0918102F091820288E70995498160E1F6
:1009F000C80179DE87016ACF1801B4E02B0E311CE3
:100A0000F8014080518062807380C301B201FCD044
:100A10004B015C018B01072E000C880B990B27D131
:100A20009B01AC01C301B20186D020E030E04AE76F
:100A300054E4CDD1E9D06B017C0120E030E0A90184
:100A4000C301B201DDD087FF12C0E0918102F091B5
:100A500082028DE209950027112708191909F094DF
:100A6000E094D094C094C11CD11CE11CF11C40E066
:100A70006AE0C80138DEE0918102F09182028EE2E4
:100A8000099543E06AE0C6012EDE81011FCFE091A7
:100A90008102F091820235CF0F90DF91CF911F91AB
:100AA0000F91FF90EF90DF90CF90BF90AF909F900D
:100AB0008F907F906F905F904F903F902F90089510
:100AC000A1E21A2EAA1BBB1BFD010DC0AA1FBB1F52
:100AD000EE1FFF1FA217B307E407F50720F0A21BC4
:100AE000B30BE40BF50B661F771F881F991F1A9431
:100AF00069F760957095809590959B01AC01BD015B
:100B0000CF01089509D0A59F900DB49F900DA49F8B
:100B1000800D911D11240895A29FB001B39FC001C3
:100B2000A39F700D811D1124911DB29F700D811D19
:100B30001124911D08955058BB27AA270ED00DC12E
:100B4000FED030F003D120F031F49F3F11F41EF4B9
:100B5000F3C00EF4E095E7FBE9C0E92F0FD180F375
:100B6000BA17620773078407950718F071F49EF5AA
:100B700027C10EF4E0950B2EBA2FA02D0B01B90161
:100B800090010C01CA01A0011124FF27591B99F003
:100B9000593F50F4503E68F11A16F040A22F232F0F
:100BA000342F4427585FF3CF469537952795A7955F
:100BB000F0405395C9F77EF41F16BA0B620B730B06
:100BC000840BBAF09150A1F0FF0FBB1F661F771F77
:100BD000881FC2F70EC0BA0F621F731F841F48F42C
:100BE000879577956795B795F7959E3F08F0B3CFB2
:100BF0009395880F08F09927EE0F9795879508959C
:100C000071D008F481E0089504D06894B111D9C07E
:100C10000895BCD088F09F5790F0B92F9927B7510D
:100C2000A0F0D1F0660F771F881F991F1AF0BA95B0
:100C3000C9F712C0B13081F0C3D0B1E00895C0C08F
:100C4000672F782F8827B85F39F0B93FCCF38695A6
:100C500077956795B395D9F73EF490958095709503
:100C600061957F4F8F4F9F4F0895E89409C097FB80
:100C70003EF490958095709561957F4F8F4F9F4F73
:100C80009923A9F0F92F96E9BB279395F6958795B7
:100C900077956795B795F111F8CFFAF4BB0F11F47A
:100CA00060FF1BC06F5F7F4F8F4F9F4F16C0882321
:100CB00011F096E911C0772321F09EE8872F762F57
:100CC00005C0662371F096E8862F70E060E02AF098
:100CD0009A95660F771F881FDAF7880F9695879584
:100CE00097F90895990F0008550FAA0BE0E8FEEF59
:100CF00016161706E807F907C0F012161306E407E0
:100D0000F50798F0621B730B840B950B39F40A26D8
:100D100061F0232B242B252B21F408950A2609F4B6
:100D2000A140A6958FEF811D811D089597F99F67BA
:100D300080E870E060E008959FEF80EC0895002463
:100D40000A941616170618060906089500240A9430
:100D500012161306140605060895092E0394000CB6
:100D600011F4882352F0BB0F40F4BF2B11F460FF45
:100D700004C06F5F7F4F8F4F9F4F089557FD90586E
:100D8000440F551F59F05F3F71F04795880F97FB4F
:100D9000991F61F09F3F79F0879508951216130609
:100DA0001406551FF2CF4695F1DF08C01616170638
:100DB0001806991FF1CF869571056105089408956D
:100DC000E894BB2766277727CB0197F908950BD0C6
:100DD000C4CFB5DF28F0BADF18F0952309F0A6CF0D
:100DE000ABCF1124EECFCADFA0F3959FD1F3950FBF
:100DF00050E0551F629FF001729FBB27F00DB11D9F
:100E0000639FAA27F00DB11DAA1F649F6627B00D2E
:100E1000A11D661F829F2227B00DA11D621F739F17
:100E2000B00DA11D621F839FA00D611D221F749F25
:100E30003327A00D611D231F849F600D211D822F6C
:100E4000762F6A2F11249F5750408AF0E1F08823B3
:100E50004AF0EE0FFF1FBB1F661F771F881F9150C0
:100E60005040A9F79E3F510570F060CFAACF5F3F79
:100E7000ECF3983EDCF3869577956795B795F795F3
:100E8000E7959F5FC1F7FE2B880F911D969587957B
:080E900097F90895F894FFCFD3
:100E980001494E495420257862007E7E7E7E7E7E02
:100EA8007E7E7E7E7E7E7E7E7E7E7E7E7E7E7E7E5A
:100EB8007E7E7E7E7E7E7E7E7E7E7E7E7E7E7E7E4A
:100EC8007E7E7E7E7E7E7E7E7E7E7E7E7E7E7E7E3A
:100ED8007E7E7E7E7E7E7E7E7E7E7E7E7E7E0A001C
:100EE8005344204341524420494E495449414C49B6
:100EF8005A4154494F4E204953204E4F5420535580
:100F0800434345535346554C0A00534420434152EA
:100F18004420494E495449414C495A4154494F4E3D
:100F2800204953205355434345535346554C0A00D3
:100F3800575249544520534543544F522054455322
:100F4800540A00575249544520544F20534543549E
:100F58004F52204953205355434345535346554C0C
:100F68000A00575249544520544F20534543544F83
:100F780052204953204E4F54205355434345535311
:100F880046554C0A005245414420534543544F525C
:100F980020544553540A00524541442046524F4D6F
:100FA80020534543544F52204953205355434345FA
:100FB800535346554C0A00444154413A0A002025EF
:100FC80078622000524541442046524F4D205345F7
:100FD80043544F52204953204E4F542053554343B6
:100FE80045535346554C0A005359532D3E204D4DF9
:100FF800435F434D443020636F6D6D616E642066BE
:0C10080061696C0A000A25642E200000BB
:00000001FF
