:1000000033C000004CC000004AC0000048C00000DF
:1000100046C0000044C0000042C000000FC3000002
:100020003EC000003CC000003AC0000038C00000E4
:1000300036C0000034C0000032C0000030C00000F4
:100040002EC000002CC000002AC0000028C0000004
:1000500026C0000024C0000022C0000020C0000014
:100060001EC000001CC0000011241FBECFEFD8E04E
:10007000DEBFCDBF11E0A0E0B1E0E0E7FFE002C0ED
:1000800005900D92A239B107D9F721E0A2E9B1E0BC
:1000900001C01D92A939B207E1F702D067C7B0CFFE
:1000A000CF93DF93CDB7DEB7C052D2400FB6F894EE
:1000B000DEBF0FBECDBF88E090E034D382EA93E08C
:1000C00048D3FE0131968E010F5F1D4F6F0184E40E
:1000D0008193E017F107E1F781E091E09F938F931F
:1000E00031D421E0A60168EE73E080E090E024D2F4
:1000F0001F928F9399E0A92E91E0B92EBF92AF92F3
:1001000021D421E0A60168EE73E080E090E098D170
:100110001F928F9325E2E22E21E0F22EFF92EF92C2
:1001200011D4D7D01F928F9380E491E09F938F9347
:1001300009D421E0A60168EE73E080E090E0FCD1F4
:100140001F928F93BF92AF92FDD321E0A60168EE7C
:1001500073E080E090E074D11F928F93FF92EF9252
:10016000F1D3CE018F5E9D4F63D2C80164D286E584
:1001700091E09F938F93E6D3CE018F5E9D4F7C01DC
:100180005C0190E1A90EB11C0FB6F894DEBF0FBE62
:10019000CDBF32E6C32E31E0D32EF70181917F012E
:1001A0001F928F93DF92CF92CDD30F900F900F902D
:1001B0000F90EA14FB0489F787E091E09F938F93F7
:1001C000C1D388E691E09F938F93BCD36801F0E19F
:1001D000CF0ED11C0F900F900F900F9082E6E82E5B
:1001E00081E0F82EF80181918F011F928F93FF9289
:1001F000EF92A8D30F900F900F900F900C151D0544
:1002000089F787E091E09F938F939CD38FEF84B918
:100210002D9A0F900F9010E285B1812785B968EE75
:1002200073E080E090E02FD2F7CF2A9A08951F93D1
:10023000CF93DF932A9A8FEF6FD22A98C4EFD1E041
:100240008FEF6AD2182F61E070E080E090E01BD25F
:100250001F3F31F02197A1F7DF91CF911F91E5CF9B
:10026000DF91CF911F9108951F93CF93DF9300D01B
:1002700000D000D0CDB7DEB72E834D835C836B8377
:100280007A838983D4DF8981806446D27A81872FFB
:1002900043D26B81862F40D25C81852F3DD24D8128
:1002A000842F3AD22E81822F37D214E611508FEF4D
:1002B00019F032D28F3FD1F38983B7DF8981269637
:1002C0000FB6F894DEBF0FBECDBFDF91CF911F9167
:1002D00008951F93CF93DF938091000181FD5DC04E
:1002E00082E0F2D1A2DF82E000D29FDFCAE08FEF8E
:1002F00013D2C150E1F7CAE025E940E050E0BA016D
:1003000080E0B2DF813041F0C15041F064E670E03E
:1003100080E090E0B8D1F0CFC1110BC081E08093B4
:10032000000184E791E09F938F930CD30F900F907F
:1003300034C02FEF40E050E0BA0189EA95DF823007
:1003400018F011E0C1E002C019EAC2E0D4E6D150D1
:10035000B1F02FEF40E050E0BA01812F85DF882314
:1003600031F06AE070E080E090E08DD1F0CF2FEFC7
:1003700040E052E060E070E080E176DF8111C0E0B3
:10038000C093920180919201882339F080910001FD
:100390008E7F8093000181E0A8D180910001DF91E0
:1003A000CF911F910895EF92FF920F931F93CF93D8
:1003B000DF931F92CDB7DEB79091000190FD35C05D
:1003C0008B01E82E9AE0F92E2FEF40E050E0BA01C1
:1003D0008E2D4ADFFA94882319F0F110F5CF27C04B
:1003E000FF2029F124DF84E6F82E8FEF95D18E3F90
:1003F00021F0FF20A9F0FA94F8CFFF2089F07801CE
:10040000005F1F4F8FEF88D1F70181937F01E017C5
:10041000F107C1F78FEF80D18F3FE1F780E001C096
:1004200080E4898302DF898103C082E001C080E427
:100430000F90DF91CF911F910F91FF90EF90089552
:100440008F929F92AF92BF92CF92DF92EF92FF92E4
:100450000F931F93CF93DF934B015C018A01D22F3F
:100460008091000180FD05C0C1E0222319F0C0E0A9
:1004700001C0C2E08091920183FD07C049E0880C71
:10048000991CAA1CBB1C4A95D1F7C11147C0D23098
:1004900018F431E1E32E02C022E1E22E9AE0F92EB7
:1004A0002FEFB501A4018E2DDFDEFA94882319F019
:1004B000F110F6CF32C0FF2081F1B9DE84E6F82ECC
:1004C0008FEF2AD18E3F21F0FF20A1F0FA94F8CFD0
:1004D000FF2081F0680158018EEFB81A8FEF1CD110
:1004E000F60181936F01EA15FB05C1F78FEF14D177
:1004F0008FEF12D11E5FD15009F7F2E1EF1611F024
:1005000094DE0CC02FEF40E050E0BA018CE0ACDE8E
:100510008FEF02D18F3FE1F7F3CFC0E28C2FDF9155
:10052000CF911F910F91FF90EF90DF90CF90BF90F0
:10053000AF909F908F9008958F929F92AF92BF92AD
:10054000CF92DF92EF92FF920F931F93CF93DF939F
:100550004B015C018A01D22F8091000180FD05C012
:10056000C1E0222319F0C0E001C0C2E08091000187
:1005700082FDC3E08091920183FD07C059E0880CA1
:10058000991CAA1CBB1C5A95D1F7C11143C0D2308B
:1005900028F438E1D32E4EEFC42E04C099E1D92EB1
:1005A0002CEFC22E8AE0E82EF12C2FEFB501A4012A
:1005B0008D2D5ADE882329F081E0E81AF108A9F789
:1005C00028C0EF2831F133DE8C2DA6D078011E5FD4
:1005D000F70181917F01A0D0E016F106C9F78FEFF6
:1005E0009BD08FEF99D08FEF97D08FEF95D08F3F23
:1005F000E1F7D15049F7F9E1DF1611F016DE0AC034
:100600008DEF8AD08FEF88D08FEF86D08F3FE1F7C4
:10061000F5CFC0E18C2FDF91CF911F910F91FF900B
:10062000EF90DF90CF90BF90AF909F908F90089504
:10063000BC0189E0B8CEBC018AE0B5CE1F920F9212
:100640000FB60F9211248F939F93AF93BF93809116
:10065000930190919401A0919501B091960101961A
:10066000A11DB11D8093930190939401A0939501D6
:10067000B0939601BF91AF919F918F910F900FBE54
:100680000F901F9018952091B00022602093B00029
:100690002091B10024602093B10029EF2093B30092
:1006A0001092B200611571058105910541F0B99B69
:1006B000FECFB99A6150710981099109F3CF109267
:1006C000B0001092B100089594B19C6294B99DB5A8
:1006D00082FB222720F9922B9DBD9CB58370892B2C
:1006E0008CBD8CB580658CBD08959CB59F7B9CBDF1
:1006F0009DB59E7F9DBD9CB59C7F9CBD9DB582FB9D
:10070000222720F9922B9DBD9CB58370892B8CBD2F
:100710008CB580648CBD08958EBD0DB407FEFDCFF1
:100720008EB508958093C4001092C500E0ECF0E00F
:100730008081808388E18093C100E2ECF0E08081D9
:10074000808308959091C00095FFFCCF8093C600F0
:10075000089590939801809397010895DC01ED919D
:10076000FC9111978081883649F0873761F0823695
:1007700069F43196ED93FC9388E008953196ED93FA
:10078000FC9380E108953196ED93FC9380E2089507
:100790004F925F926F927F928F929F92AF92BF9291
:1007A000CF92DF92EF92FF92CF93DF936B017C01A8
:1007B000C22F4A3039F0403109F46EC0423009F09E
:1007C00089C065C02AE0822E912CA12CB12CD1E0E9
:1007D000C701B601A5019401D9D1232B242B252BC8
:1007E00049F0DF5FAAE0B0E0A5019401F1D14B012F
:1007F0005C01EECFC1110BC0C501B4012AE030E0AD
:1008000040E050E0C3D149015A01CD2F05C094E624
:10081000892E912CA12CB12C8AE0482E512C612CD0
:10082000712CCC2309F456C0C701B601A50194016F
:10083000ADD1D22FA22F220FBB0BA5019401D2D193
:10084000C61AD70AE80AF90AC501B401A301920140
:100850009DD149015A01E0919701F091980180E3FF
:100860008D0F0995C150DDCFC150D701C6010C2EA7
:1008700004C0B595A795979587950A94D2F780FF00
:1008800009C081E3E0919701F09198010995C111A8
:10089000EBCF20C080E3F6CFD22FD695D695DF5F81
:1008A000D130C1F0C450D701C6010C2E04C0B5959B
:1008B000A795979587950A94D2F78F708A3010F490
:1008C000805D01C0895CE0919701F09198010995E4
:1008D000D150E6CFDF91CF91FF90EF90DF90CF9096
:1008E000BF90AF909F908F907F906F905F904F9050
:1008F0000895EF92FF920F931F93CF93DF93EC0134
:100900007C0180E8E80EF11C8E018881882399F033
:10091000E0919701F091980109952196F801808165
:100920008A3031F4E0919701F09198018DE00995BA
:10093000CE15DF0549F7DF91CF911F910F91FF9001
:10094000EF9008952F923F924F925F926F927F9215
:100950008F929F92AF92BF92CF92DF92EF92FF92CF
:100960000F931F93CF93DF931F92CDB7DEB78E0106
:10097000085E1F4FEE89FF89CF0101969F8B8E8BFA
:1009800090819532A1F0992309F4ECC0E091970190
:10099000F0919801892F9983099599819A3051F79F
:1009A000E0919701F09198018DE00995E3CFCF0197
:1009B00002969F8B8E8B8181843629F194F4823646
:1009C00009F441C0833609F0C8C0780182E0E80E1E
:1009D000F11CE0919701F0919801D8018C91099553
:1009E0006EC0833739F0883709F44AC0863609F07B
:1009F000B4C067C07801B2E0EB0EF11CF801808151
:100A0000918177DF5CC05801F4E0AF0EB11CD801D2
:100A1000CD90DD90ED90FC90F7FE0EC0E091970137
:100A2000F09198018DE20995F094E094D094C094EF
:100A3000C11CD11CE11CF11C20E04AE0C701B60139
:100A4000A7DE850197CFCE01469688DE282F780154
:100A5000B4E0EB0EF11CF80140805180628073809D
:100A6000E0919701F091980180E329830995E09145
:100A70009701F091980182E60995298142E01CC016
:100A8000CE0146966BDE282F7801F4E0EF0EF11CC4
:100A9000D8014D905D906D907C90E0919701F09120
:100AA000980180E329830995E0919701F0919801DD
:100AB00088E70995298140E1C301B20169DE870118
:100AC00059CF1801B4E02B0E311CF80180809180C1
:100AD000A280B380C501B40103D16B017C0133D185
:100AE0009B01AC01C501B40192D020E030E04AE79F
:100AF00054E4D9D1F5D02B013C0120E030E0A9012C
:100B0000C501B401E9D087FF16C0E0919701F091CB
:100B100098018DE20995F094E094D094C094C11CA2
:100B2000D11CE11CF11C7094609450944094411CC1
:100B3000511C611C711C20E04AE0C701B60128DE8F
:100B4000E0919701F09198018EE2099523E04AE047
:100B5000C301B2011DDE81010DCFE0919701F0913B
:100B6000980123CF0F90DF91CF911F910F91FF90AC
:100B7000EF90DF90CF90BF90AF909F908F907F903D
:100B80006F905F904F903F902F900895A1E21A2EA2
:100B9000AA1BBB1BFD010DC0AA1FBB1FEE1FFF1F21
:100BA000A217B307E407F50720F0A21BB30BE40B71
:100BB000F50B661F771F881F991F1A9469F76095B8
:100BC0007095809590959B01AC01BD01CF01089572
:100BD0000FD0A59F900DB49F900DA49F800D911DE7
:100BE00011240895B7FFF4CFF3DF821B930B089510
:100BF000A29FB001B39FC001A39F700D811D11245E
:100C0000911DB29F700D811D1124911D08955058A2
:100C1000BB27AA270ED00DC1FED030F003D120F0A3
:100C200031F49F3F11F41EF4F3C00EF4E095E7FB9E
:100C3000E9C0E92F0FD180F3BA1762077307840761
:100C4000950718F071F49EF527C10EF4E0950B2E70
:100C5000BA2FA02D0B01B90190010C01CA01A0010E
:100C60001124FF27591B99F0593F50F4503E68F169
:100C70001A16F040A22F232F342F4427585FF3CFAA
:100C8000469537952795A795F0405395C9F77EF47B
:100C90001F16BA0B620B730B840BBAF09150A1F0C4
:100CA000FF0FBB1F661F771F881FC2F70EC0BA0F4A
:100CB000621F731F841F48F4879577956795B795D2
:100CC000F7959E3F08F0B3CF9395880F08F09927CA
:100CD000EE0F97958795089571D008F481E00895F7
:100CE00004D06894B111D9C00895BCD088F09F5742
:100CF00090F0B92F9927B751A0F0D1F0660F771F68
:100D0000881F991F1AF0BA95C9F712C0B13081F047
:100D1000C3D0B1E00895C0C0672F782F8827B85F8F
:100D200039F0B93FCCF3869577956795B395D9F7A8
:100D30003EF490958095709561957F4F8F4F9F4FB2
:100D40000895E89409C097FB3EF4909580957095BE
:100D500061957F4F8F4F9F4F9923A9F0F92F96E907
:100D6000BB279395F695879577956795B795F1117C
:100D7000F8CFFAF4BB0F11F460FF1BC06F5F7F4F19
:100D80008F4F9F4F16C0882311F096E911C077232B
:100D900021F09EE8872F762F05C0662371F096E834
:100DA000862F70E060E02AF09A95660F771F881F03
:100DB000DAF7880F9695879597F90895990F0008A7
:100DC000550FAA0BE0E8FEEF16161706E807F9071D
:100DD000C0F012161306E407F50798F0621B730BB8
:100DE000840B950B39F40A2661F0232B242B252B39
:100DF00021F408950A2609F4A140A6958FEF811DDC
:100E0000811D089597F99F6780E870E060E008957C
:100E10009FEF80EC089500240A9416161706180612
:100E20000906089500240A941216130614060506EE
:100E30000895092E0394000C11F4882352F0BB0F7F
:100E400040F4BF2B11F460FF04C06F5F7F4F8F4FE2
:100E50009F4F089557FD9058440F551F59F05F3F1D
:100E600071F04795880F97FB991F61F09F3F79F0CC
:100E700087950895121613061406551FF2CF46954E
:100E8000F1DF08C0161617061806991FF1CF8695D0
:100E90007105610508940895E894BB2766277727B4
:100EA000CB0197F908950BD0C4CFB5DF28F0BADF96
:100EB00018F0952309F0A6CFABCF1124EECFCADFEF
:100EC000A0F3959FD1F3950F50E0551F629FF0015D
:100ED000729FBB27F00DB11D639FAA27F00DB11DB6
:100EE000AA1F649F6627B00DA11D661F829F22273F
:100EF000B00DA11D621F739FB00DA11D621F839FC6
:100F0000A00D611D221F749F3327A00D611D231F9B
:100F1000849F600D211D822F762F6A2F11249F57E9
:100F200050408AF0E1F088234AF0EE0FFF1FBB1F0C
:100F3000661F771F881F91505040A9F79E3F5105AB
:100F400070F060CFAACF5F3FECF3983EDCF386955C
:100F500077956795B795F795E7959F5FC1F7FE2B56
:100F6000880F911D9695879597F90895F894FFCF6E
:100F70000153544152543A0A005359532D3E2057BD
:100F8000524954455F4E4F5F494E49543A205B25C4
:100F900078625D0A005359532D3E20524541445F0B
:100FA0004E4F5F494E49543A205B2578625D0A00F6
:100FB0005359532D3E2053445F494E49543A205BC8
:100FC0002578625D0A005359532D3E204353443A1D
:100FD00020002025786220005359532D3E2043499C
:100FE000443A20005359532D3E204D4D435F434D0D
:100FF000443020636F6D6D616E64206661696C0AB8
:021000000000EE
:00000001FF
