:1000000033C000004CC000004AC0000048C00000DF
:1000100046C0000044C0000042C0000074C00000A0
:100020003EC000003CC000003AC0000038C00000E4
:1000300036C0000034C0000032C0000030C00000F4
:100040002EC000002CC000002AC0000028C0000004
:1000500026C0000024C0000022C0000020C0000014
:100060001EC000001CC0000011241FBECFEFD8E04E
:10007000DEBFCDBF11E0A0E0B1E0E8EBF6E002C0EA
:1000800005900D92A431B107D9F721E0A4E1B1E0C8
:1000900001C01D92AD31B207E1F702D00BC3B0CF62
:1000A00080E077D060E070E088E391E4D8D0C0E0F1
:1000B000D0E0C12CD12C88E3E82E81E4F82EADD01D
:1000C00061E070E080E090E043D02196C43F81E0A1
:1000D000D807A8F3C701B601C2D020E030E040E85D
:1000E0005FE3C701B60138D16B017C0120E030E04D
:1000F00048EC52E454D2C0E0D0E0181604F7C12C0A
:10010000D12C7601DCCF1F920F920FB60F921124E3
:100110008F939F93AF93BF9380911401909115019A
:10012000A0911601B09117010196A11DB11D8093F8
:10013000140190931501A0931601B0931701BF917C
:10014000AF919F918F910F900FBE0F901F901895B8
:100150002091B00022602093B0002091B100246073
:100160002093B10029EF2093B3001092B2006115E3
:1001700071058105910541F0B99BFECFB99A615097
:10018000710981099109F3CF1092B0001092B1006A
:100190000895811103C08AE091E002C080E091E0FF
:1001A0009093190180931801209A219A529A539A98
:1001B000549A559A569A579A3A9A3B9A3C9A429828
:1001C00043984498089580FF02C0289A01C0289857
:1001D00081FF02C0299A01C0299882FF02C05A9A61
:1001E00001C05A9883FF02C05B9A01C05B9884FFEC
:1001F00002C05C9A01C05C9885FF02C05D9A01C094
:100200005D98982F907311F05E9A01C05E9887FFF9
:1002100002C05F9A08955F980895CF93DF93CAE173
:10022000D1E08881D0DF429A61E070E080E090E028
:100230008FDF42988981C7DF439A61E070E080E0F8
:1002400090E086DF43988A81BEDF449A61E070E0E7
:1002500080E090E07DDF4498DF91CF910895CF92C8
:10026000DF92EF92FF921F93CF93DF936B017C019C
:10027000DCD0462FEAE0862F6E2F3AD0292F30E0CF
:10028000842F90E0821B930B6AE070E03DD0862FB4
:10029000D901A65FBE4F1C91CAE1D1E06E2F28D0D4
:1002A000E92FF0E0E65FFE4F80818883C701B60149
:1002B000B7D0072E000C880B990BE5D09B01AC0141
:1002C000C701B60148D020E030E040E251E46BD1F4
:1002D000A7D0FB01E65FFE4F80818A831F771983D9
:1002E000DF91CF911F91FF90EF90DF90CF9095CF4E
:1002F000991B79E004C0991F961708F0961B881F78
:100300007A95C9F78095089597FB072E16F4009407
:1003100006D077FD08D00BD007FC05D03EF49095B1
:1003200081959F4F0895709561957F4F0895AA1B01
:10033000BB1B51E107C0AA1FBB1FA617B70710F0D0
:10034000A61BB70B881F991F5A95A9F78095909502
:10035000BC01CD0108955058BB27AA270ED0E5C097
:10036000D6D030F0DBD020F031F49F3F11F41EF4F2
:10037000CBC00EF4E095E7FBC1C0E92FE7D080F3D6
:10038000BA17620773078407950718F071F49EF592
:10039000FFC00EF4E0950B2EBA2FA02D0B01B90172
:1003A00090010C01CA01A0011124FF27591B99F0EB
:1003B000593F50F4503E68F11A16F040A22F232FF7
:1003C000342F4427585FF3CF469537952795A79547
:1003D000F0405395C9F77EF41F16BA0B620B730BEE
:1003E000840BBAF09150A1F0FF0FBB1F661F771F5F
:1003F000881FC2F70EC0BA0F621F731F841F48F414
:10040000879577956795B795F7959E3F08F0B3CF99
:100410009395880F08F09927EE0F97958795089583
:1004200004D06894B111B5C0089598D088F09F5752
:1004300090F0B92F9927B751A0F0D1F0660F771F30
:10044000881F991F1AF0BA95C9F712C0B13081F010
:100450009FD0B1E008959CC0672F782F8827B85FA0
:1004600039F0B93FCCF3869577956795B395D9F771
:100470003EF490958095709561957F4F8F4F9F4F7B
:100480000895E89409C097FB3EF490958095709587
:1004900061957F4F8F4F9F4F9923A9F0F92F96E9D0
:1004A000BB279395F695879577956795B795F11145
:1004B000F8CFFAF4BB0F11F460FF1BC06F5F7F4FE2
:1004C0008F4F9F4F16C0882311F096E911C07723F4
:1004D00021F09EE8872F762F05C0662371F096E8FD
:1004E000862F70E060E02AF09A95660F771F881FCC
:1004F000DAF7880F9695879597F9089597F99F678A
:1005000080E870E060E008959FEF80EC089500249B
:100510000A941616170618060906089500240A9468
:1005200012161306140605060895092E0394000CEE
:1005300011F4882352F0BB0F40F4BF2B11F460FF7D
:1005400004C06F5F7F4F8F4F9F4F089557FD9058A6
:10055000440F551F59F05F3F71F04795880F97FB87
:10056000991F61F09F3F79F0879508951216130641
:100570001406551FF2CF4695F1DF08C01616170670
:100580001806991FF1CF86957105610508940895A5
:10059000E894BB2766277727CB0197F9089566D0A3
:1005A00008F48FEF08950BD0C0CFB1DF28F0B6DF8D
:1005B00018F0952309F0A2CFA7CF1124EACFC6DF08
:1005C000A0F3959FD1F3950F50E0551F629FF00166
:1005D000729FBB27F00DB11D639FAA27F00DB11DBF
:1005E000AA1F649F6627B00DA11D661F829F222748
:1005F000B00DA11D621F739FB00DA11D621F839FCF
:10060000A00D611D221F749F3327A00D611D231FA4
:10061000849F600D211D822F762F6A2F11249F57F2
:1006200050408AF0E1F088234AF0EE0FFF1FBB1F15
:10063000661F771F881F91505040A9F79E3F5105B4
:1006400070F05CCFA6CF5F3FECF3983EDCF386956D
:1006500077956795B795F795E7959F5FC1F7FE2B5F
:10066000880F911D9695879597F90895990F000821
:10067000550FAA0BE0E8FEEF16161706E807F90774
:10068000C0F012161306E407F50798F0621B730B0F
:10069000840B950B39F40A2661F0232B242B252B90
:1006A00021F408950A2609F4A140A6958FEF811D33
:0806B000811D0895F894FFCFAD
:1006B8003F065B4F666D7D077F6FC0F9A4B09992C6
:0406C80082F88090A4
:00000001FF
