:1000000033C000004DC000004BC0000049C00000DC
:1000100047C0000045C0000043C000000C94A41875
:100020003FC000003DC000003BC0000039C00000E0
:1000300037C0000035C0000033C0000031C00000F0
:100040002FC000002DC000002BC0000029C0000000
:1000500027C0000025C0000023C0000021C0000010
:100060001FC000001DC0000011241FBECFEFD8E04C
:10007000DEBFCDBF12E0A0E0B1E0E6E4FAE302C0EB
:1000800005900D92AA33B107D9F724E0AAE3B2E0B4
:1000900001C01D92A437B207E1F703D00C94211DD3
:1000A000AFCFEF92FF920F931F93CF93DF93CDB714
:1000B000DEB7C658D2400FB6F894DEBF0FBECDBF34
:1000C00088E090E00E94181988E299E10E942F19B7
:1000D00040E066E471E085E492E00E9441108823EC
:1000E00039F0082F10E01F928F9381E091E00FC04C
:1000F0004BE068E171E0CE0101960E9485108823F3
:10010000E9F0082F10E01F928F9383E291E09F9314
:100110008F930E94251A0F900F900F900F90C80197
:10012000CA57DD4F0FB6F894DEBF0FBECDBFDF91CB
:10013000CF911F910F91FF90EF90089514E197E4F4
:10014000E92E91E0F92EBE016F5F7F4F89E391E0C8
:100150000E94521899279F938F93FF92EF920E94CB
:10016000251A11500F900F900F900F9061F740E0FB
:1001700050E0BA01CE0101960E9438168EE591E05A
:100180009F938F930E94251A0F900F908E010D5D03
:100190001D4F8FE6E82E81E0F82EAE014F5F5F4FD6
:1001A00064E670E0C8010E940118892B59F01F9382
:1001B0000F93FF92EF920E94251A0F900F900F90CD
:1001C0000F90EBCFCE0101960E941B16811103C048
:1001D00083E791E002C087E891E09F938F930E94AC
:1001E000251A0F900F908FEF84B92D9A10E285B1E8
:1001F000812785B968EE73E080E090E00E94C9181D
:10020000F6CF2A9A81E008951F93CF93DF93EC01F4
:100210008FEF0E941219182F61E070E080E090E0EB
:100220000E94C9181F3F11F0219791F781E01F3FED
:1002300009F080E0DF91CF911F9108952A9A8FEF06
:100240000E9412192A9884EF91E0DEDF813019F0C4
:10025000D8DF80E0089581E00895DF92EF92FF9269
:100260000F931F93CF93DF93C82F042FF52EE62E05
:10027000D72E122F87FF12C0E8E9F1E0FF93EF932A
:100280000E94251A20E040E050E0BA0187E3E5DF54
:10029000D82F0F900F90823028F5CF77CFDF8C2F9B
:1002A00080640E9412198D2D0E9412198E2D0E94B9
:1002B00012198F2D0E941219802F0E941219812F5E
:1002C0000E94121914E6115039F08FEF0E94121992
:1002D000D82F8F3FC1F301C0DFEFC83019F0CA3308
:1002E00009F08FDF8D2FDF91CF911F910F91FF903C
:1002F000EF90DF900895DF92EF92FF920F931F939C
:10030000CF93DF9300D000D0CDB7DEB7809100014E
:1003100081FDA5C082E00E94EA1873DF82E00E949E
:10032000FB186FDF1AE08FEF0E9412191150D9F7F6
:100330001AE025E940E050E0BA0180E08EDF81302C
:1003400049F0115049F064E670E080E090E00E94CE
:10035000C918EFCF111104C081E0809300017FC064
:1003600027E84AEA51E060E070E088E076DF81301B
:1003700089F58E010F5F1F4F780124E0D22ED00E39
:100380008FEF0E941219F70181937F01DE12F8CFDF
:1003900038DF8B81813009F07BC08C818A3A09F08B
:1003A00077C09CE2E92EFF24F394F1E0EF1AF10804
:1003B00009F46EC02FEF40E050E060E070E489EA9D
:1003C0004CDF882349F16AE070E080E090E00E9411
:1003D000C918EBCF2FEF40E050E0BA0189EA3DDFCA
:1003E000823020F0FF24F39411E003C089EAF82E54
:1003F00012E004E6015009F44BC02FEF40E050E05A
:10040000BA018F2D2ADF8823D1F16AE070E080E005
:1004100090E00E94C918EECF2FEF40E050E0BA0103
:100420008AE31BDF811134C08FEF0E941219F8019B
:1004300081938F01DE12F8CFE4DE898186FD1DC035
:1004400014E010933A0280913A02882341F080919F
:1004500000018E7F8093000181E00E94FB18809153
:1004600000010F900F900F900F90DF91CF911F918F
:100470000F91FF90EF90DF9008951CE0E2CF2FEFF7
:1004800040E052E060E070E080E1E7DE8823C9F2FE
:1004900010E0D7CF0F931F93CF93DF93909100017C
:1004A00090FD32C08B01D82FCAE02FEF40E050E022
:1004B000BA018D2FD2DEC150882319F0C111F5CFBA
:1004C00025C0CC2319F1BADEC4E68FEF0E941219C1
:1004D0008E3F21F0CC23A9F0C150F7CFCC2389F077
:1004E000E801005F1F4F8FEF0E9412198993C01718
:1004F000D107C9F78FEF0E9412198F3FD9F7C0E0DB
:1005000001C0C0E47EDE03C0C3E001C0C0E48C2FA4
:10051000DF91CF911F910F9108958F929F92AF928B
:10052000BF92CF92DF92EF92FF920F931F93CF93E0
:10053000DF934B015C018A01D22F211102C0C4E07C
:1005400001C0C0E08091000180FDC3E080913A02CB
:1005500083FD07C049E0880C991CAA1CBB1C4A9566
:10056000D1F7C1114CC0D23018F431E1E32E02C0F2
:1005700022E1E22E9AE0F92E2FEFB501A4018E2D93
:100580006CDEFA94882319F0F110F6CF37C0FF2003
:10059000A9F154DE84E6F82E8FEF0E9412198E3FE7
:1005A00021F0FF20B9F0FA94F7CFFF2099F068010D
:1005B00058018EEFB81A8FEF0E941219F60181933D
:1005C0006F01EA15FB05B9F78FEF0E9412198FEF43
:1005D0000E9412191E5FD150E9F6F2E1EF1611F0F8
:1005E00010DE0DC02FEF40E050E0BA018CE035DEA8
:1005F0008FEF0E9412198F3FD9F7F2CFC1E08C2FF5
:10060000DF91CF911F910F91FF90EF90DF90CF90EE
:10061000BF90AF909F908F9008958F929F92AF92CE
:10062000BF92CF92DF92EF92FF920F931F93CF93DF
:10063000DF934B015C018A01D22F211102C0C4E07B
:1006400001C0C0E08091000180FDC3E08091000105
:1006500082FDC2E080913A0283FD07C059E0880C18
:10066000991CAA1CBB1C5A95D1F7C1114CC0D230A1
:1006700028F438E1D32E4EEFC42E04C099E1D92ED0
:100680002CEFC22E8AE0E82EF12C2FEFB501A40149
:100690008D2DE3DD882329F081E0E81AF108A9F720
:1006A00031C0EF2879F1CADD8C2D0E941219780132
:1006B0001E5FF70181917F010E941219E016F10679
:1006C000C1F78FEF0E9412198FEF0E9412198FEF5E
:1006D0000E9412198FEF0E9412198F3FD9F7D15043
:1006E00019F7F9E1DF1611F08CDD0DC08DEF0E94D6
:1006F00012198FEF0E9412198FEF0E9412198F3F6B
:10070000D9F7F2CFC1E08C2FDF91CF911F910F91DC
:10071000FF90EF90DF90CF90BF90AF909F908F9021
:100720000895809100010895BC0189E0B3CECF9275
:10073000DF92EF92FF920F931F93CF93DF93CDB78A
:10074000DEB760970FB6F894DEBF0FBECDBF9091B5
:10075000000190FDF8C08B01813071F038F08330DA
:1007600009F45FC0843009F4A9C0EFC067DD11E06F
:10077000882309F4A1C09FC0CE010196D5DF811165
:1007800054C09981929596959695937088854985E0
:100790002A859130E1F48F7390E0A0E0B0E0DC01B5
:1007A000992788270196A11DB11D50E0542F442799
:1007B000BA01620F711D860F971FA11DB11DFAE0CE
:1007C000880F991FAA1FBB1FFA95D1F76FC04295DA
:1007D000469546954370F4E08F9FC0011124840F25
:1007E000911D01964F81437050E0542F4427550FBF
:1007F000550F840F951FA0E0B0E03E81432F4F704E
:100800003B85331F3327331F340F2370220F230FF1
:10081000275004C0880F991FAA1FBB1F2A95D2F723
:1008200045C080913A0282FF02C011E045C0CE016E
:1008300001967ADF8111F9CF90913A022B858C8550
:1008400091FF16C0881F8827881F90E001962F739C
:10085000820F911D820F911D2E852295269526953A
:100860002370215002C0880F991F2A95E2F71CC0FF
:10087000382F337082958695877090E0F8E03F9F1F
:10088000800D911D112401962C7730E03595279528
:10089000359527952F5F3F4F829FA001839F500D75
:1008A000929F500D1124CA01A0E0B0E0F8018083AE
:1008B0009183A283B38310E0A4DC48C0CE010196EB
:1008C00033DF811142C08981829586958695837038
:1008D00019F48B8586FF39C0F8014081518162810E
:1008E0007381C480D580E680F78080913A0283FDD1
:1008F0000EC089E0440F551F661F771F8A95D1F7F8
:1009000099E0CC0CDD1CEE1CFF1C9A95D1F72FEF63
:1009100080E2A3DC811119C02FEFB701A60181E2AB
:100920009CDC811112C02FEF40E050E0BA0186E25A
:1009300094DC81110AC080E395E766DC11E088232E
:1009400029F010E003C013E001C011E0812F609690
:100950000FB6F894DEBF0FBECDBFDF91CF911F91D0
:100960000F91FF90EF90DF90CF900895FC0163818D
:10097000862F90E0A0E0B0E0BA2FA92F982F88270B
:100980002281822BBA2FA92F982F88272181822B91
:10099000BA2FA92F982F88272081BC01CD01622B67
:1009A0000895FC0140835183628373830895DC01C1
:1009B000FB012D91819130E0B901681B7109CB01D8
:1009C0004150510911F00097A1F308950F931F931F
:1009D000FC019A01AB012250310941095109838977
:1009E0009489A589B6890297A109B1092817390701
:1009F0004A075B0768F4A185B2850E94591B07A1CD
:100A000010A521A532A5600F711F821F931F03C07F
:100A100060E070E0CB011F910F910895CF93DF93B9
:100A2000DC01ED91FC9111973097D1F09F012F5F80
:100A30003F4FE90121978881813278F08A33B9F7F5
:100A4000908180ED890F8A3058F43296E217F307CF
:100A500039F4903329F42D933C9380E090E002C068
:100A60008FEF9FEFDF91CF9108950F931F93CF9357
:100A7000DF93EC018B01892BF1F0E881F98130974C
:100A8000D1F080818823B9F02A813B8185819681CC
:100A90002817390781F481810E94851880FD0BC0D9
:100AA0002881398180E0F80131832083DF91CF9163
:100AB0001F910F91089589E020E030E0F4CFFB0111
:100AC000480F591F2191DC012D93CD01A417B507C3
:100AD000C9F70895FB01438D50E0542F4427928DB0
:100AE000492B60E070E0833079F4858990E0982F9D
:100AF00088272489822BA0E0B0E0DC019927882791
:100B0000482B592B6A2B7B2BCB01BA010895FB0193
:100B1000228F338FDC018C91833029F4CA01AA27FC
:100B2000BB27848B958B08958F929F92AF92BF9233
:100B3000EF92FF920F931F93CF93DF93FC012381DA
:100B40002223C1F1EC017C01FFE2EF0EF11C2BA589
:100B50003CA54DA55EA501E010E0B70189810E948A
:100B60009218811129C01B828BA59CA5ADA5BEA59D
:100B70000F89188D298D3A8D8F8C98A0A9A0BAA0C5
:100B8000AC01BD01481959096A097B094017510791
:100B90006207730778F46A81623061F4A9019801F1
:100BA000280F391F4A1F5B1F01E010E0B701898140
:100BB0000E94921880E001C081E0DF91CF911F91E7
:100BC0000F91FF90EF90BF90AF909F908F900895FE
:100BD0008F929F92AF92BF92FF920F931F93CF93EA
:100BE000DF93EC014A015B018BA59CA5ADA5BEA5D9
:100BF000481759076A077B07E1F0CE0195DFF82E09
:100C0000811118C001E010E0A5019401BE01615DF1
:100C10007F4F89810E948918882331F0FF24F39443
:100C200088248A94982C54018BA69CA6ADA6BEA6B7
:100C300001C0F12C8F2DDF91CF911F910F91FF906B
:100C4000BF90AF909F908F900895CF93DF93EC016A
:100C50001B828FEF9FEFDC018BA79CA7ADA7BEA7E0
:100C6000CE01B6DF811128C0FE01E25DFD4F80811B
:100C700090E0982F882731972081822B85359A4ADA
:100C8000E9F48FA58B3E19F0885E8230D8F443E0FA
:100C900050E060EA71E0CE018B599F4F88DE892BCE
:100CA00079F045E050E064EA71E0CE018F579F4F44
:100CB0007EDE892B39F404C084E005C083E003C0E4
:100CC00080E001C082E0DF91CF9108952F923F92A2
:100CD0004F925F926F927F928F929F92AF92BF924C
:100CE000CF92DF92EF92FF920F931F93CF93DF93F8
:100CF000CDB7DEB76E970FB6F894DEBF0FBECDBF8F
:100D00007B01DB011D921C924E8F88DE6C014E8DA3
:100D100097FD55C2FC01EE0FFF1FE35CFD4F008104
:100D200011810115110509F44CC2F70111830083EB
:100D30004E7FF42ED8018C91882369F011968C9106
:100D40000E94851880FD07C0FF2009F43CC282FF85
:100D50003AC28AE040C2F8011082C1828C2D0E9402
:100D6000871880FD32C2FF2011F082FDF2CF40E0F3
:100D700050E0BA01C80169DF823009F041C09E012C
:100D80002F5F3F4F690178013BE0E31A3EEFF30A22
:100D900048014BEC841A4DEF940A5601F701349741
:100DA0008081882319F0C701E1DD03C060E070E0B5
:100DB000CB01D5016D937D938D939D935D01B0E142
:100DC000EB0EF11CE814F90449F77E01E1E1EE0EA7
:100DD000F11CD6014D905D906D907D906D01411498
:100DE00051046104710439F0B301A201C8012DDF7F
:100DF000823010F40FC083E0CE14DF0451F7E7C156
:100E0000412C512C3201843009F4E4C1823010F0BD
:100E10008DE0E1C1F80183AD90E0982F882722ADE5
:100E2000822B81159240A1F7F801EA5BFF4F808089
:100E3000912C982C882431978081882A81149104E0
:100E400019F0A12CB12C06C0C8018D5A9F4F8EDD20
:100E50004B015C01D80157968D929D92AD92BC9248
:100E60005A97DF964C91DF9712964C9312978FEF1B
:100E7000840F823068F6DC96BC91B98B8B2F90E0A2
:100E8000F80192878187009719F29C01215031095E
:100E900082239323892B09F0BBCFEF5BFF4F808127
:100EA00090E0982F8827319720811C01222AD801B1
:100EB00018963C922E921797C1018F709927892B13
:100EC00009F0A6CF3396808190E0982F882731973C
:100ED0002081822B6C01E12CF12C892B41F4C8017B
:100EE000815B9F4F4E8F42DD6B017C014E8DD8019F
:100EF000DE96EC91DE97F0E0FE2FEE27DD968C91EA
:100F0000E82B309709F484CFA42FB0E0A501940119
:100F10000E94591B6E8B7F8B888F998F9F0140E0B9
:100F200050E02A8F3B8F4C8F5D8FC101B4E09695C6
:100F30008795BA95E1F7280F391F411D511DDA0138
:100F4000C9012E893F89488D598D280F391F4A1FA5
:100F50005B1F2A8B3B8B4C8B5D8BC216D306E40642
:100F6000F50608F455CFC701B601621B730B840B5D
:100F7000950BA9892A2F30E040E050E00E94371BF2
:100F8000211531054105510509F442CF263FBFEF38
:100F90003B074B07BFE05B0708F03ACF263FEFEF78
:100FA0003E074105510548F4263FFFE03F07410554
:100FB000510530F481E0898B05C093E0998B02C024
:100FC000A2E0A98B69017A01B2E0CB0ED11CE11C31
:100FD000F11CF801C38AD48AE58AF68A438E548EBE
:100FE000658E768E8A8D9B8DAC8DBD8D840D951D05
:100FF000A61DB71D878F90A3A1A3B2A34A895B89C1
:101000006C897D89440D551D661D771D47A350A72A
:1010100061A772A7F989F33019F5F801E65AFF4F75
:10102000808190E0982F882731972081822B892B0F
:1010300009F0EECE232809F0EBCEC801855A9F4F68
:1010400095DCD80193966D937D938D939C939697A1
:1010500072E0CC0CDD1CEE1CFF1C7A95D1F72DC084
:10106000232809F4D5CE2E893F89488D598D820FCA
:10107000931FA41FB51FF80183A394A3A5A3B6A330
:10108000F989F23029F4CC0CDD1CEE1CFF1C15C0D4
:10109000A3E0B0E0A70196010E94591BDC01CB013F
:1010A000B695A7959795879521E0C222DD24EE2479
:1010B000FF24C80ED91EEA1EFB1E3FEFC30E31E00F
:1010C000D31EE11CF11C49E0F694E794D794C79431
:1010D0004A95D1F78C149D04AE04BF0408F498CE51
:1010E0008FEF9FEFDC01F8018787908BA18BB28B8C
:1010F00083879487A587B68780E88483F989F3304E
:1011000009F04CC0F801E05AFF4F808190E0982F21
:10111000882731972081822B019709F03FC0B301C6
:10112000A2014F5F5F4F6F4F7F4FC80151DD8111AB
:1011300035C0D80114961C92F801E25DFD4F808104
:1011400090E0982F882731972081822B85359A4A05
:1011500029F5C8018F960ADC6235724581469144B3
:10116000E9F4C8018D5E9D4F01DC6237724781440E
:101170009146A1F4C801895E9D4FF8DBD8011F9606
:101180006D937D938D939C935297C801855E9D4F7F
:10119000EDDBF8016387748785879687E989D80135
:1011A000EC9380913B0290913C02019690933C021B
:1011B00080933B0216969C938E93159704C08BE008
:1011C0000AC08CE008C080E006C083E004C0843020
:1011D00009F01ECE81E06E960FB6F894DEBF0FBE0A
:1011E000CDBFDF91CF911F910F91FF90EF90DF90D6
:1011F000CF90BF90AF909F908F907F906F905F90B7
:101200004F903F902F9008952F923F924F925F9270
:101210006F927F928F929F92AF92BF92CF92DF9206
:10122000EF92FF920F931F93CF93DF9300D000D0E4
:10123000CDB7DEB71C016A017B01280139014230BC
:1012400051056105710508F4DAC0FC0183899489B0
:10125000A589B689481759076A077B0708F0CFC0E8
:101260008081823009F473C0833009F491C08130E9
:1012700009F0C5C05A01B694A794A40EB51EC501C5
:10128000892F99278695478D50A161A172A1480F9A
:10129000591F611D711DC1019BDC182F8111B0C048
:1012A0004501FFEF8F1A9F0A31E0B322A20CB31C55
:1012B000D701C60181709927AA27BB2789839A8302
:1012C000AB83BC83C0FE0BC0D5019F968C91282FA9
:1012D0002F70B0E14B9EC0011124822B01C0842DE0
:1012E000F50187A781E0D10113968C9313975F9640
:1012F0004D915D916D917C919297C401892F9927B1
:101300008695480F591F611D711DC10161DC182FA1
:10131000811176C0B1E09B22F101E80DF91D8981B0
:101320009A81AB81BC81892B8A2B8B2B41F054E0B5
:1013300076946794579447945A95D1F706C047A579
:10134000407F852D8F70442E482A47A653C07727AB
:101350006F2D5E2D4D2DF101878D90A1A1A1B2A120
:10136000480F591F6A1F7B1FC10132DC182F8111E2
:1013700047C0CC0CDD1CE894C0F8F1E0DF22F1019D
:10138000EC0DFD1D47A6F101EC0DFD1D50AA32C06C
:10139000F101878D90A1A1A1B2A127E07695679573
:1013A000579547952A95D1F7480F591F6A1F7B1FFC
:1013B000C1010EDC182F811123C0CC0CDD1CCC0C1C
:1013C000DD1CFCEFCF22F1E0DF223FE2C30ED11C97
:1013D000C20CD31CC601CADAAB01BC014427552795
:1013E0006627707F8FE0782244295529662977295E
:1013F000C601D7DA81E0D10113968C9301C012E0C7
:10140000812F0F900F900F900F90DF91CF911F9130
:101410000F91FF90EF90DF90CF90BF90AF909F9093
:101420008F907F906F905F904F903F902F90089596
:10143000AF92BF92CF92DF92EF92FF920F931F93E2
:10144000CF93DF938C016A017B0142305105610526
:10145000710508F4A3C0F80183899489A589B68928
:10146000481759076A077B0708F098C080818230C7
:1014700009F44BC0833009F46EC0813009F08EC08E
:10148000EA01D695C795C40FD51FCE01892F99279C
:101490008695478D50A161A172A1480F591F611D0A
:1014A000711DC80195DB882321F06FEF7FEFCB0121
:1014B00079C05E01FFEFAF1ABF0AD170C00FD11F14
:1014C000CFA5C501892F99278695F801478D50A191
:1014D00061A172A1480F591F611D711DC80178DB00
:1014E0008111E3CFF1E0BF22F801EA0DFB1D87A5D2
:1014F0006C2F70E0782BC0FE06C0E4E0769567950F
:10150000EA95E1F725C07F7023C077276F2D5E2D08
:101510004D2DF801878D90A1A1A1B2A1480F591FAF
:101520006A1F7B1FC80154DB8111BFCFCC0CDD1CAF
:10153000E894C0F8F1E0DF22F801EC0DFD1D60A990
:1015400070E0762F6627F801EC0DFD1D87A5682B4E
:1015500080E090E027C0F801878D90A1A1A1B2A101
:1015600027E076956795579547952A95D1F7480FC7
:10157000591F6A1F7B1FC8012BDB811196CFCC0C32
:10158000DD1CCC0CDD1CFCEFCF22F1E0DF22C6011C
:101590008F96800F911FEAD99F7004C061E070E0C0
:1015A00080E090E0DF91CF911F910F91FF90EF903D
:1015B000DF90CF90BF90AF9008954F925F926F925F
:1015C0007F928F929F92AF92BF92CF92DF92EF92D3
:1015D000FF920F931F93CF93DF938C014A015B011E
:1015E000FC01C081D181411551056105710599F456
:1015F0004B845C846D847E844114510461047104C5
:1016000059F18B899C89AD89BE89481659066A06AD
:101610007B0630F121C0CE010BDF6B017C01623013
:1016200071058105910508F4E8C06F3F7F4F8F4F2A
:101630009F4F29F44FEF3FEF2FEF9FEFE7C08B89CC
:101640009C89AD89BE89C816D906EA06FB0608F44E
:10165000D9C02401350104C0412C512C32014394DE
:101660008F859889A989BA89892B8A2B8B2B11F4AC
:1016700040E0C4C0481459046A047B0409F046C021
:10168000730162018FEFC81AD80AE80AF80A8B8939
:101690009C89AD89BE89C816D906EA06FB0628F0E2
:1016A00092E0C92ED12CE12CF12CB701A601F80152
:1016B00080819181BDDE613071058105910509F45C
:1016C0009CC06F3FFFEF7F078F079F0709F4B2CFE2
:1016D000672B682B692BA9F08B859C85AD85BE8512
:1016E00082309105A105B10588F04B895C896D892F
:1016F0007E8984179507A607B70740F42C013D01A2
:1017000005C0C114D104E104F104E1F573016201E3
:101710002FEFC21AD20AE20AF20A8B899C89AD899C
:10172000BE89C816D906EA06FB0660F082E04816B4
:1017300051046104710408F49BCF82E0C82ED12CBF
:10174000E12CF12CB701A601F8018081918170DEB6
:101750006115710581059105A9F06130710581055B
:10176000910531F06F3FFFEF7F078F079F0721F44F
:10177000462F372F282F4AC0C414D504E604F70497
:1017800039F676CF0FEF1FEF9801B701A601CE0112
:101790003BDD81112FC081149104A104B104E9F44F
:1017A000CB86DC86ED86FE868F859889A989BA89E5
:1017B0004B895C896D897E894250510961097109A3
:1017C000481759076A077B0788F00197A109B109F3
:1017D0008F87988BA98BBA8B09C097018601B501B9
:1017E000A401CE0111DD8823D9F204C08C8181606F
:1017F0008C8308C0813009F41DCF41E030E020E047
:1018000090E004C04C2D3D2D2E2D9F2D642F732F65
:10181000822FDF91CF911F910F91FF90EF90DF907A
:10182000CF90BF90AF909F908F907F906F905F9080
:101830004F9008954F925F926F927F928F929F92F6
:10184000AF92BF92EF92FF920F931F93CF93DF93CC
:101850007C014A015B01B901A801FC01C081D18171
:10186000F2E08F169104A104B10410F482E05EC08E
:101870008B899C89AD89BE8988169906AA06BB0604
:10188000A8F7012B022B032B39F00FEF1FEF980164
:10189000CE01BADC81114AC0B501A401F7018081F3
:1018A0009181C6DD2B013C01611571058105910512
:1018B00011F480E03BC06130710581059105B1F202
:1018C0006F3F7F4F8F4F9F4F81F100E010E09801F5
:1018D000B501A401CE0198DC811128C08F859889BB
:1018E000A989BA894B895C896D897E894A015B0126
:1018F000E2E08E1A9108A108B10888159905AA0599
:10190000BB0550F40196A11DB11D8F87988BA98B43
:10191000BA8B8C8181608C83530142014416550639
:101920006606770608F4B8CFC4CF81E0DF91CF9187
:101930001F910F91FF90EF90BF90AF909F908F906D
:101940007F906F905F904F900895CF92DF92EF92CB
:10195000FF920F931F93CF93DF938C01FC01C08103
:10196000D18116861786108A118AC680D780E084B6
:10197000F184C114D104E104F104E9F488818330D5
:1019800040F08BA19CA1ADA1BEA10097A105B1051E
:1019900081F48F819885892B11F482E04BC08BA153
:1019A0009CA1ADA1BEA1F801868B978BA08FB18FB2
:1019B0002DC06C017D0189859A85892BE9F4B701D9
:1019C000A601F8018081918133DD6B017C016F3FBD
:1019D0007F4F8F4F9F4F69F182E0C816D104E10419
:1019E000F104D8F28B899C89AD89BE89C816D906C5
:1019F000EA06FB0620F3D1CFB701A601CE010E9473
:101A0000E604F801668B778B808F918FF801C28A8C
:101A1000D38AE48AF58A86899789A08DB18D892B2E
:101A20008A2B8B2B09F4B9CFAF96D38FC28F80E06E
:101A300001C081E0DF91CF911F910F91FF90EF9056
:101A4000DF90CF9008956F927F928F929F92AF9286
:101A5000BF92CF92DF92EF92FF920F931F93CF939B
:101A6000DF9300D000D0CDB7DEB73C0149835A8365
:101A70006B837C8359D849815A816B817C81811128
:101A80003AC0C3010E94E6044B015C01F30163A765
:101A900074A785A796A76301FFE2CF0ED11CF601BC
:101AA000C301815D9D4F1192E817F907E1F7E12C21
:101AB000F12CF30181859285E816F90648F081E062
:101AC000F30121853285E216F306B1F480E014C0FB
:101AD00001E010E0A50194012E0D3F1D411D511D97
:101AE000B601F30181810E9492188111E8CF8FEF36
:101AF000E81AF80ADECF81E00F900F900F900F9058
:101B0000DF91CF911F910F91FF90EF90DF90CF90D9
:101B1000BF90AF909F908F907F906F9008954F925D
:101B20005F926F927F92AF92BF92CF92DF92EF92CD
:101B3000FF920F931F93CF93DF93EC015B0108811A
:101B40001981CE84DF84E888F9884E895F89688DA1
:101B5000798D411551056105710509F4B0C080E228
:101B6000C80ED11CE11CF11CC114D104E0E2EE0648
:101B7000F10408F0A4C0D701C6019170AA27BB27C1
:101B8000892B8A2B8B2B09F08BC04F5F5F4F6F4FD8
:101B90007F4F4E8B5F8B688F798F4A895B896C8909
:101BA0007D89F8014115510561057105C1F48781F1
:101BB0009085A0E0B0E0B701A60135E07695679585
:101BC000579547953A95D1F7481759076A077B0704
:101BD00008F466C01E8A1F8A188E198E70C081850F
:101BE00092850197A0E0B0E02601370129E07694C4
:101BF0006794579447942A95D1F784219521A6217B
:101C0000B721892B8A2B8B2B09F04AC0C80110DC25
:101C10002B013C01623071058105910510F482E0D1
:101C200051C08FEF481658066806780611F481E017
:101C300049C0F80183899489A589B689481659064F
:101C40006A067B0600F1AB2829F24A895B896C8918
:101C50007D89CE01B2DC2B013C0161157105810546
:101C6000910579F16130710581059105C1F28FEF20
:101C70004816580668067806D1F2B301A201C801D9
:101C8000E2DE8111D4CF4A8A5B8A6C8A7D8AB301F5
:101C9000A201C8010E94E6046E8B7F8B888F998F0A
:101CA000CE86DF86E88AF98AE1E0DE22FFE2CF0E07
:101CB000D11CC00ED11EDB8ECA8E80E003C084E032
:101CC00001C087E0DF91CF911F910F91FF90EF90BE
:101CD000DF90CF90BF90AF907F906F905F904F90CC
:101CE00008954F925F926F927F928F929F92AF92E0
:101CF000BF92CF92DF92EF92FF920F931F93CF93F9
:101D0000DF93FC01C080D180FB014E2F3F2F21913A
:101D10002F32D9F32C35C9F3042F132FFC0116826F
:101D2000178210861186F8012081203270F0EC01B4
:101D30007C01FCE1EF0EF11C4C0187E2880E911C46
:101D400080E2682E95E0792E50C020E8FC0127A3A0
:101D5000DF91CF911F910F91FF90EF90DF90CF9087
:101D6000BF90AF909F908F907F906F905F904F90BB
:101D7000ECCD6192E815F905E1F7F80180E090E01B
:101D800020E030E068E070E02F5F3F4F519151322A
:101D900070F5020F131F892B09F486C08C8D853EC8
:101DA00009F47C8E513208F44FC080E08FA3A880E4
:101DB000B980CE01CADD882309F448C09FA18111F2
:101DC0006AC092FD6DC08C8184FF6CC06E857F857A
:101DD0007170615D7F4F6C0D7D1DF60180810E94E9
:101DE0006A056E837F8388879987F701C2CF5F3248
:101DF00011F05C3561F4F801E20FF31F9F01201B25
:101E0000310B41914F32D1F34C35C1F3C2CF5E3229
:101E100009F44CC08617970708F046C057FF06C064
:101E2000A52FAF77B0E0A754BE4F5C91A52EB12C83
:101E3000AAEAB1E04D91442309F440C0442E512C4C
:101E40004A145B04B9F730C084E0B0CF4E895F8993
:101E5000688D798DC5010E94E8058111AFCFEA8DAB
:101E6000FB8D8081882399F083858F738C83838594
:101E700083FD08C04BE050E0B701CF010E94D704BA
:101E8000892B39F060E070E0CE0149DE94CF84E028
:101E900095CF80E093CF8430E1F492FF03C019C066
:101EA00080E017C085E015C086E013C06B30710577
:101EB000D9F388E090E06BE070E066CF4FE9450F22
:101EC0004A3108F45052D701A80FB91F5C9301960C
:101ED0005BCFDF91CF911F910F91FF90EF90DF903B
:101EE000CF90BF90AF909F908F907F906F905F90BA
:101EF0004F900895EF92FF920F931F93CF938C0111
:101F0000DC01ED90FC9021DDC82F81111AC0F80191
:101F100046895789608D718DC7010E94E805C82FD9
:101F200081110FC0D8015A96ED91FC915B97808189
:101F3000853E59F0882349F061E070E0C801EFDD8B
:101F4000E3CFC43031F5C7E024C0F8014689578992
:101F5000608D718DC7010E94E805C82F811119C0DD
:101F6000D8015A96ED91FC915B97CF018096119222
:101F7000E817F907E1F7B801645E7F4F4BE050E0E6
:101F8000F801828D938D0E945F0581E0D701139641
:101F90008C938C2FCF911F910F91FF90EF9008950C
:101FA000EF92FF920F931F93CF93DF93EC010E9468
:101FB0009405982F81115DC08881833009F04FC04E
:101FC0008C81813009F04BC07E018FE2E80EF11C5C
:101FD000F701CE01815D9D4F1192E817F907E1F7F6
:101FE00085E5FE01E35DFD4F80838AEA31968083BB
:101FF00082E58FA788AB81E689AB91E49AAB22E7B3
:102000007B9720833196208331969083319680830D
:102010004F85588969897A89CE01895E9D4F0E94D2
:10202000D1044B855C856D857E85CE01855E9D4F97
:102030000E94D1048B8D9C8DAD8DBE8D9C01AD0118
:102040002F5F3F4F4F4F5F4F2BA73CA74DA75EA77A
:1020500001E010E0B70189810E9492181C8240E0E3
:1020600050E060E089810E949B1891E0811101C0DD
:1020700090E0892FDF91CF911F910F91FF90EF900A
:102080000895CF93DF93CDB7DEB727970FB6F894B7
:10209000DEBF0FBECDBF9C838B837E836D837A832F
:1020A0006983CE0101964F830E940E054F8197FDF3
:1020B00020C0880F991FFC01E35CFD4F0190F08167
:1020C000E02D309709F01082EB81FC81309709F008
:1020D0001082DC01A35CBD4FED93FC93442359F0C7
:1020E00040E0BE016D5F7F4FCE0105960E946606FF
:1020F00003C08BE001C080E027960FB6F894DEBFE6
:102100000FBECDBFDF91CF9108952F923F924F9296
:102110005F926F927F928F929F92AF92BF92CF9277
:10212000DF92EF92FF920F931F93CF93DF93CDB780
:10213000DEB7AC970FB6F894DEBF0FBECDBF7CA75D
:102140006BA7009709F450C1142F7C01842F8F7363
:10215000D82E482FBE01675D7F4FCE018B960E941F
:10216000660681114EC189A59AA59A8389836BA5BC
:102170007CA5CE010196B5DD811103C098A597FD20
:1021800086E0912F9C7109F464C0882359F0843053
:1021900019F4CE010196AEDE9D2D9860D92E8823CC
:1021A00039F02FC18D81817109F024C112FD1EC14A
:1021B000D3FE58C06B8D7C8DE9A5FAA580810E9465
:1021C0006A052B013C01BBD7AB01BC018B8D9C8DFB
:1021D0000E960E94D104EB8DFC8D80E283876B8D7F
:1021E0007C8D20E030E0A90189A59AA50E94870591
:1021F000EB8DFC8D148E158E168E178EE9A5FAA523
:1022000081E08383411451046104710459F183A472
:1022100094A4A5A4B6A400E010E09801B301A20123
:10222000CE01019607DB8111ECC0B501A40189A59F
:102230009AA50E94E805E9A5FAA591E0491A510876
:10224000610871084386548665867686882351F036
:10225000D8C08111D6C08D8184FDCAC011FF02C0D3
:1022600080FDC8C0D3FE03C0ED2DE064DE2E09A5BD
:102270001AA5F80183A594A5A5A5B6A5F701848F95
:10228000958FA68FB78FAB8CBC8CB1A2A0A2B501E5
:10229000F80180810E946A05F70166837783808751
:1022A0009187C5014C960E94B604F7016287738737
:1022B0008487958711830083F80185819681F701D2
:1022C00093838283D6861786108E118E128E138E7C
:1022D000108A118A128A138A1701F2E22F0E311C1A
:1022E000F101C7018E5D9D4F1192E817F907E1F7E3
:1022F000D5FE82C0F70142845384648475844114FE
:1023000051046104710409F477C0408A518A628AD9
:10231000738AF80181859285A0E0B0E04C015D01EF
:1023200039E0880C991CAA1CBB1C3A95D1F7F7011F
:10233000468157816085718584149504A604B7048D
:10234000E8F4F7018081918173D8AB01BC01423080
:1023500051056105710540F04F3FFFEF5F076F07C3
:102360007F0721F080E003C082E001C081E04818CF
:1023700059086A087B088823F9F201C080E0F70158
:10238000448B558B668B778B81113BC0D301C20187
:102390009170AA27BB27892B8A2B8B2B69F1C9A4A3
:1023A000DAA4C6010E94E604611571058105910554
:1023B00029F129E076946794579447942A95D1F7A8
:1023C0009B01AC01240D351D461D571DF701208FC3
:1023D000318F428F538F01E010E0B101F60181810E
:1023E00098D681110DC008C089E00EC088E009C0F0
:1023F00084E007C087E005C080E006C082E001C03D
:1024000081E0F70111821082AC960FB6F894DEBF1E
:102410000FBECDBFDF91CF911F910F91FF90EF9035
:10242000DF90CF90BF90AF909F908F907F906F90F4
:102430005F904F903F902F9008952F923F924F9230
:102440005F926F927F928F929F92AF92BF92CF9244
:10245000DF92EF92FF920F931F93CF93DF9300D001
:1024600000D000D0CDB7DEB77C014B015A013C83D0
:102470002B83F90111821082BE016F5F7F4F0E9492
:102480003505811122C1F701878581111EC186851D
:1024900080FF1AC182859385A485B58540895189BD
:1024A00062897389841B950BA60BB70BA50160E0AD
:1024B00070E084179507A607B70708F45C01C70109
:1024C00082969E838D83A114B10409F4FBC0F701A9
:1024D00080899189A289B389AC01BD0151706627B9
:1024E0007727452B462B472B09F0BBC0E981FA81A2
:1024F0000185128501501109AC01BD01E9E0769515
:10250000679557954795EA95D1F70423152301154B
:10251000110541F5F701892B8A2B8B2B29F4668154
:1025200077818085918508C0448955896689778936
:10253000808191810E94180A6230710581059105A0
:1025400010F482E007C06F3FFFEF7F078F079F0700
:1025500021F481E0F7018787B8C0F701648B758BA0
:10256000868B978B69807A80F701448955896689C3
:102570007789C3010E94E604611571058105910503
:1025800001F31B012C01200E311E411C511C650161
:10259000CD2CDD24C694C114D104C1F1F301818591
:1025A00092859601200F311F8217930718F46C0152
:1025B000C01AD10A8601A2019101B401F3018181FF
:1025C000A8D58111C6CFF701868587FF1BC0808DF6
:1025D000918DA28DB38D82199309A409B509A60125
:1025E00060E070E084179507A607B70758F4982FA6
:1025F0008827990F40E052E06D817E81880D991DFA
:102600000E945F05DC2CCC24DD0C42C0F701208D3C
:10261000318D428D538D2215330544055505E1F06A
:10262000868587FF0DC001E010E06D817E81F3019A
:10263000818178D581118DCFF70186858F77868747
:10264000E981FA8101E010E0A20191016D817E81B2
:1026500081815FD581117DCFF701208E318E428E31
:10266000538EF70180899189A289B389917020E006
:1026700032E0281B390B65012A153B0508F4690176
:102680008296B701680F791FA601C4010E945F05F9
:10269000AC18BD08EB81FC81808191818C0D9D1D62
:1026A000918380838C0C9D1CF70180899189A2897C
:1026B000B3898C0D9D1DA11DB11D808B918BA28BAB
:1026C000B38B01CF80E001C087E026960FB6F89467
:1026D000DEBF0FBECDBFDF91CF911F910F91FF9055
:1026E000EF90DF90CF90BF90AF909F908F907F90B2
:1026F0006F905F904F903F902F9008952F923F9250
:102700004F925F926F927F928F929F92AF92BF9201
:10271000CF92DF92EF92FF920F931F93CF93DF93AD
:10272000CDB7DEB728970FB6F894DEBF0FBECDBF8A
:102730007C013B015A013E832D83F90111821082F5
:10274000BE016F5F7F4F0E943505811169C1F7019E
:102750008785811165C1868581FF61C180899189E5
:10276000A289B389AC01BD014A0D5B1D611D711DBC
:10277000481759076A077B0718F45C01A094B094C6
:10278000C701829698878F83A114B10409F443C0CE
:10279000F70180899189A289B389AC01BD0151708B
:1027A00066277727452B462B472B09F0F4C0E98194
:1027B000FA8181849284F1E08F1A9108AC01BD0105
:1027C000E9E07695679557954795EA95D1F7842284
:1027D00095228114910409F046C0F701892B8A2BB8
:1027E0008B2B69F4668177818085918561157105F0
:1027F00081059105B1F440E050E0BA0104C044897C
:10280000558966897789C7010E94DD0A61157105BE
:102810008105910531F4F70186858064868780E023
:10282000FFC0613071058105910511F482E007C098
:102830006F3FFFEF7F078F079F0721F481E0F701CC
:102840008787EEC0F701648B758B868B978B06812B
:10285000178120853185012B022B032B21F4668300
:10286000778380879187F701868587FF12C0208D47
:10287000318D428D538DE981FA8101E010E06F8145
:10288000788581814FD48111D9CFF70186858F77E3
:10289000868789819A819C838B83F7014489558936
:1028A000668977890E94E6046115710581059105A5
:1028B00009F4BCCF1B012C01280C391C411C511CF4
:1028C0006501CD2CDD24C694C114D104E1F1EB8166
:1028D000FC81818592859601280D391D8217930709
:1028E00018F46C01C818D9088601A2019101B3013E
:1028F000EB81FC81818116D48111A0CFF701808DFD
:10290000918DA28DB38D82199309A409B509A601F1
:1029100060E070E084179507A607B70780F4982F4A
:102920008827990FB301680F791F40E052E08F812B
:1029300098850E945F05F70186858F778687DC2C56
:10294000CC24DD0C42C0F701808D918DA28DB38D1A
:1029500082159305A405B505C9F04089518962899E
:10296000738982859385A485B585481759076A07B9
:102970007B0760F401E010E0A20191016F8178858E
:10298000EB81FC818181C5D3811158CFF701208E65
:10299000318E428E538EF70180899189A289B38945
:1029A000917020E032E0281B390B65012A153B05A8
:1029B00008F469018296A601B3018E0D9F1D0E9445
:1029C0005F05F701868580688687AC18BD08ED81B4
:1029D000FE81808191818C0D9D1D918380836C0C83
:1029E0007D1CF70180899189A289B3898C0D9D1D79
:1029F000A11DB11D808B918BA28BB38B428553851A
:102A00006485758584179507A607B70710F4DB0161
:102A1000CA01F70182879387A487B587B5CE87E07F
:102A200028960FB6F894DEBF0FBECDBFDF91CF91D1
:102A30001F910F91FF90EF90DF90CF90BF90AF90DC
:102A40009F908F907F906F905F904F903F902F90CE
:102A50000895CF92DF92EF92FF920F931F93CF933F
:102A6000DF9300D0CDB7DEB7FC012281338137FD83
:102A700030C08C01C480D5807901FFEFEF1AFF0AC6
:102A8000FC01E20FF31F66838CE3E816F104C4F047
:102A90009E012F5F3F4FA701B8016A5F7F4FF8018A
:102AA000808191812BDE81E090E029813A812E1591
:102AB0003F0511F480E090E0EE24FF24E81AF90AC3
:102AC000F801F382E282FFEFCF1ADF0AF801D58224
:102AD000C4820F900F90DF91CF911F910F91FF90C3
:102AE000EF90DF90CF9008950F931F93CF93DF93D4
:102AF00000D0CDB7DEB7FC014281538157FF03C040
:102B00008FEF9FEF17C08C01BC016A5F7F4F9E0162
:102B10002F5F3F4FFC0180819181F0DD8111F0CF6B
:102B2000F8012281338189819A812817390741F779
:102B3000848195810F900F90DF91CF911F910F911C
:102B400008958F929F92AF92BF92EF92FF920F9350
:102B50001F93CF93DF9300D0CDB7DEB77C01BE01CA
:102B60006F5F7F4F0E943505811158C0F701868540
:102B700086FF51C087FF13C0208D318D428D538D4C
:102B8000E981FA8101E010E0B7016E5D7F4F81813C
:102B9000C9D2811142C0F70186858F778687CFD24F
:102BA0004B015C01F701448D558D668D778D8981D0
:102BB0009A810E94E805811131C0F70100A111A19D
:102BC000F801838580628387F701268137814085FC
:102BD0005185B801808191810E948705F701428566
:102BE000538564857585C8014C960E94D104B50152
:102BF000A401C80146960E94D104F801128A138AE2
:102C000089819A8121E0FC012383CAD9F701968545
:102C10009F7B968703C080E001C081E00F900F90FA
:102C2000DF91CF911F910F91FF90EF90BF90AF90E8
:102C30009F908F9008950F931F93CF93DF9300D0B1
:102C4000CDB7DEB78C017DDF81110BC0BE016F5F98
:102C50007F4FC8010E943505811103C0F801118220
:102C600010820F900F90DF91CF911F910F910895D7
:102C70004F925F926F927F928F929F92AF92BF928C
:102C8000EF92FF920F931F93CF93DF93CDB7DEB7F1
:102C90002A970FB6F894DEBF0FBECDBF7C014A0164
:102CA0005B01BE016F5F7F4F0E943505811194C1AA
:102CB000D7011F968C911F9781118EC11A968D9105
:102CC0009D910D90BC91A02D88159905AA05BB0575
:102CD00030F4F701268521FD02C04C015D01D701CA
:102CE00050964D905D906D907C905397F701108AAF
:102CF000118A128A138A81149104A104B10421F467
:102D0000812C912C540117C1E981FA81818592852A
:102D1000A0E0B0E08C019D0149E0000F111F221FCF
:102D2000331F4A95D1F70B831C832D833E834114B7
:102D300051046104710409F445C011E0411A5108BD
:102D400061087108C501B4016150710981099109D7
:102D50002B813C814D815E818AD42F8338874987BE
:102D60005A87C301B2012B813C814D815E817FD4A2
:102D70006F81788589859A8562177307840795071F
:102D800008F18B819C81AD81BE81B095A095909515
:102D900081959F4FAF4FBF4F482259226A227B2215
:102DA000D70150964D925D926D927C925397841804
:102DB0009508A608B70854964D915D916D917C9148
:102DC000579732C0F701468157816085718541155B
:102DD00051056105710519F540E050E0BA01C701E0
:102DE0000E94DD0AAB01BC0141305105610571054E
:102DF00029F482E0D7011F968C93EEC04F3FBFEFBE
:102E00005B076B077B0721F481E0F7018787E4C04C
:102E1000D70116964D935D936D937C931997F701A7
:102E2000448B558B668B778B411551056105710578
:102E300009F466CF0B811C812D813E81081519058F
:102E40002A053B0508F04BC00B811C812D813E817A
:102E5000801A910AA20AB30AF70180899189A2898E
:102E6000B389800F911FA21FB31F808B918BA28B00
:102E7000B38B868581FF0BC0C7010E94DD0AAB01C1
:102E8000BC01411551056105710539F425C08081EA
:102E900091810E94180AAB01BC014F3FBFEF5B0755
:102EA0006B077B0709F4B0CF42305105610571050E
:102EB00008F49FCFE981FA8183899489A589B6892D
:102EC000481759076A077B0708F093CFF701448B2F
:102ED000558B668B778BAECF812C912C5401F701EB
:102EE00080899189A289B389880D991DAA1DBB1D6E
:102EF000808B918BA28BB38BD501C4019170AA27D3
:102F0000BB27892B8A2B8B2B09F4FACE89819A81D6
:102F10000E94E604611571058105910509F469CFE8
:102F200029E0B694A794979487942A95D1F7860EB2
:102F3000971EA81EB91EF70180899189A289B389BD
:102F40004285538564857585481759076A077B074D
:102F500038F482879387A487B587268520642687DF
:102F60009170AA27BB27892B8A2B8B2BA1F1D70124
:102F700058962D913D914D915C915B9782169306E9
:102F8000A406B50641F11E968C91F701B2963F0159
:102F900087FF10C0E981FA8101E010E0B30181816F
:102FA000C1D0811131CFD7011E968C911E978F779A
:102FB0001E968C93E981FA8101E010E0A50194014D
:102FC000B3018181A6D081111FCFF701808E918E30
:102FD000A28EB38E01C080E02A960FB6F894DEBFB1
:102FE0000FBECDBFDF91CF911F910F91FF90EF905A
:102FF000BF90AF909F908F907F906F905F904F9019
:1030000008958F929F92AF92BF92CF92DF92EF92EC
:10301000FF920F931F93CF93DF9300D000D000D087
:10302000CDB7DEB77C014A015B0181E0A81AB10887
:103030008701C12CD12CCA14DB04CCF49E012B5F78
:103040003F4F41E050E0BE016F5F7F4FC401F5D9B3
:103050008D819E81019759F489810F5F1F4FF8017F
:10306000319780839FEFC91AD90A8A3021F7F80176
:103070001082CD2811F0C70102C080E090E02696B2
:103080000FB6F894DEBF0FBECDBFDF91CF911F9179
:103090000F91FF90EF90DF90CF90BF90AF909F90F7
:1030A0008F900895EF92FF920F931F93CF93DF932A
:1030B000CDB7DEB7C654D1090FB6F894DEBF0FBE48
:1030C000CDBFFE0131969E01295B3F4F7F011192DA
:1030D000E217F307E1F77A8369838C01F8016191C4
:1030E0008F01C701662311F0B4DCF8CFFDDCCA5BA9
:1030F000DF4F0FB6F894DEBF0FBECDBFDF91CF918B
:103100001F910F91FF90EF9008950C9491030C94F0
:103110007B010F93FB01CA01B901202FAF010F9171
:103120000C948D020F93FB01CA01B901202FAF014E
:103130000F910C940D03862FBA010C94970360E055
:1031400070E081E29CE408951F920F920FB60F92F7
:1031500011248F939F93AF93BF9380913F029091DF
:103160004002A0914102B09142020196A11DB11D01
:1031700080933F0290934002A0934102B093420299
:10318000BF91AF919F918F910F900FBE0F901F90A5
:1031900018952091B00022602093B0002091B100DA
:1031A00024602093B10029EF2093B3001092B20065
:1031B000611571058105910541F0B99BFECFB99A62
:1031C0006150710981099109F3CF1092B0001092FA
:1031D000B100089594B19C6294B99DB582FB2227F9
:1031E00020F9922B9DBD9CB58370892B8CBD8CB52D
:1031F00080658CBD08959CB59F7B9CBD9DB59E7FD1
:103200009DBD9CB59C7F9CBD9DB582FB222720F96E
:10321000922B9DBD9CB58370892B8CBD8CB5806431
:103220008CBD08958EBD0DB407FEFDCF8EB50895FB
:103230008093C4001092C500E0ECF0E080818083B0
:1032400088E18093C100E2ECF0E080818083089502
:103250009091C00095FFFCCF8093C6000895909395
:103260004402809343020895DC01ED91FC91119793
:103270008081883649F0873761F0823669F431966B
:10328000ED93FC9388E008953196ED93FC9380E1F3
:1032900008953196ED93FC9380E208958F929F926A
:1032A000AF92BF92CF92DF92EF92FF920F931F9354
:1032B000CF93DF938C01C42F6A3039F0603109F469
:1032C00072C0623009F08BC069C02AE0C22ED12CD6
:1032D000E12CF12CD1E04C01990FAA08BB08C501E3
:1032E000B401A7019601C3D1232B242B252B49F030
:1032F000DF5FAAE0B0E0A7019601DBD16B017C01A2
:10330000EECFC1110BC0C701B6012AE030E040E0AA
:1033100050E0ADD169017A01CD2F05C094E6C92EE8
:10332000D12CE12CF12C8AE0882E912CA12CB12CEF
:10333000CC2309F454C0B801012E000C880B990B62
:10334000A701960194D1D22F30E02C9DC0012D9D74
:10335000900D3C9D900D1124081B190BC701B6015F
:10336000A501940184D169017A01E0914302F091B1
:10337000440280E38D0F0995C150DACFC150C801D6
:103380000C2E02C0959587950A94E2F780FF09C03C
:1033900081E3E0914302F09144020995C111EECF1F
:1033A0001EC080E3F6CFD42FD695D695DF5FD130FF
:1033B000B1F0C45098010C2E02C0359527950A949F
:1033C000E2F72F702A3010F480E301C087E3820F08
:1033D000E0914302F09144020995D150E8CFDF918A
:1033E000CF911F910F91FF90EF90DF90CF90BF9002
:1033F000AF909F908F900895EF92FF920F931F933D
:10340000CF93DF93EC017C0180E8E80EF11C8E0184
:103410008881882399F0E0914302F0914402099554
:103420002196F80180818A3031F4E0914302F091D5
:1034300044028DE00995CE15DF0549F7DF91CF9164
:103440001F910F91FF90EF9008952F923F924F920E
:103450005F926F927F928F929F92AF92BF92CF9224
:10346000DF92EF92FF920F931F93CF93DF931F9200
:10347000CDB7DEB78E01085E1F4FEE89FF89CF0101
:1034800001969F8B8E8B90819532A1F0992309F440
:10349000DAC0E0914302F0914402892F99830995A3
:1034A00099819A3051F7E0914302F09144028DE006
:1034B0000995E3CFCF0102969F8B8E8B8181843655
:1034C00021F188F48236B1F1833609F0B7C0780172
:1034D00082E0E80EF11CE0914302F0914402D80131
:1034E0008C9109955EC0833739F0883709F43DC067
:1034F000863609F0A3C057C07801B2E0EB0EF11C8C
:10350000F8018081918178DF4CC07801F2E0EF0E04
:10351000F11CD8010D911C9117FF09C0E0914302E5
:10352000F09144028DE2099511950195110940E051
:103530006AE035C0CE01469697DE482F7801B2E0AA
:10354000EB0EF11CF80100811181E0914302F09132
:10355000440280E349830995E0914302F0914402DB
:1035600082E60995498162E01AC0CE0146967CDE6A
:10357000482F7801F2E0EF0EF11CD8010D911C915B
:10358000E0914302F091440280E349830995E09180
:103590004302F091440288E70995498160E1C8013E
:1035A0007DDE87016ACF1801B4E02B0E311CF801D3
:1035B0004080518062807380C301B201FCD04B0116
:1035C0005C018B01072E000C880B990B27D19B0106
:1035D000AC01C301B20186D020E030E04AE754E4F8
:1035E000CDD1E9D06B017C0120E030E0A901C3011D
:1035F000B201DDD087FF12C0E0914302F091440296
:103600008DE209950027112708191909F094E09413
:10361000D094C094C11CD11CE11CF11C40E06AE0B4
:10362000C8013CDEE0914302F09144028EE209952C
:1036300043E06AE0C60132DE81011FCFE091430220
:10364000F091440235CF0F90DF91CF911F910F91F0
:10365000FF90EF90DF90CF90BF90AF909F908F90B2
:103660007F906F905F904F903F902F900895A1E2D0
:103670001A2EAA1BBB1BFD010DC0AA1FBB1FEE1FEC
:10368000FF1FA217B307E407F50720F0A21BB30B37
:10369000E40BF50B661F771F881F991F1A9469F7B3
:1036A00060957095809590959B01AC01BD01CF010F
:1036B000089509D0A59F900DB49F900DA49F800DF3
:1036C000911D11240895A29FB001B39FC001A39F33
:1036D000700D811D1124911DB29F700D811D11244B
:1036E000911D08955058BB27AA270ED00DC1FED0BA
:1036F00030F003D120F031F49F3F11F41EF4F3C0F9
:103700000EF4E095E7FBE9C0E92F0FD180F3BA177B
:10371000620773078407950718F071F49EF527C1B7
:103720000EF4E0950B2EBA2FA02D0B01B9019001DC
:103730000C01CA01A0011124FF27591B99F0593F20
:1037400050F4503E68F11A16F040A22F232F342F68
:103750004427585FF3CF469537952795A795F040B6
:103760005395C9F77EF41F16BA0B620B730B840BCB
:10377000BAF09150A1F0FF0FBB1F661F771F881F83
:10378000C2F70EC0BA0F621F731F841F48F48795DB
:1037900077956795B795F7959E3F08F0B3CF9395CA
:1037A000880F08F09927EE0F97958795089571D0A7
:1037B00008F481E0089504D06894B111D9C0089547
:1037C000BCD088F09F5790F0B92F9927B751A0F03F
:1037D000D1F0660F771F881F991F1AF0BA95C9F7A5
:1037E00012C0B13081F0C3D0B1E00895C0C0672FDE
:1037F000782F8827B85F39F0B93FCCF38695779555
:103800006795B395D9F73EF490958095709561953D
:103810007F4F8F4F9F4F0895E89409C097FB3EF468
:1038200090958095709561957F4F8F4F9F4F99230D
:10383000A9F0F92F96E9BB279395F695879577958B
:103840006795B795F111F8CFFAF4BB0F11F460FF4B
:103850001BC06F5F7F4F8F4F9F4F16C0882311F0A3
:1038600096E911C0772321F09EE8872F762F05C0B7
:10387000662371F096E8862F70E060E02AF09A9552
:10388000660F771F881FDAF7880F9695879597F947
:103890000895990F0008550FAA0BE0E8FEEF1616E1
:1038A0001706E807F907C0F012161306E407F50734
:1038B00098F0621B730B840B950B39F40A2661F0A8
:1038C000232B242B252B21F408950A2609F4A1404B
:1038D000A6958FEF811D811D089597F99F6780E858
:1038E00070E060E008959FEF80EC089500240A9452
:1038F0001616170618060906089500240A941216CB
:103900001306140605060895092E0394000C11F4FD
:10391000882352F0BB0F40F4BF2B11F460FF04C0AA
:103920006F5F7F4F8F4F9F4F089557FD9058440F03
:10393000551F59F05F3F71F04795880F97FB991F0E
:1039400061F09F3F79F087950895121613061406CB
:10395000551FF2CF4695F1DF08C016161706180658
:10396000991FF1CF86957105610508940895E89433
:10397000BB2766277727CB0197F908950BD0C4CFD3
:10398000B5DF28F0BADF18F0952309F0A6CFABCF4A
:103990001124EECFCADFA0F3959FD1F3950F50E02D
:1039A000551F629FF001729FBB27F00DB11D639FF1
:1039B000AA27F00DB11DAA1F649F6627B00DA11D97
:1039C000661F829F2227B00DA11D621F739FB00D3D
:1039D000A11D621F839FA00D611D221F749F3327AD
:1039E000A00D611D231F849F600D211D822F762F46
:1039F0006A2F11249F5750408AF0E1F088234AF043
:103A0000EE0FFF1FBB1F661F771F881F915050408E
:103A1000A9F79E3F510570F060CFAACF5F3FECF34E
:103A2000983EDCF3869577956795B795F795E7957A
:103A30009F5FC1F7FE2B880F911D9695879597F98B
:063A40000895F894FFCF89
:103A4600015359532D3E204D4F554E542045525249
:103A56004F525B25645D0A0068656C6C6F6F2E744F
:103A66007874005359532D3E204F50454E204552F1
:103A7600524F525B25645D0A0048656C6C6F207777
:103A86006F726C64210A005359532D3E20575249D8
:103A9600544520444F4E45205B25645D0A0053592A
:103AA600532D3E2052454144204C494E450A00259F
:103AB600730A00434C4F53452046494C4520535505
:103AC60043434553530A00434C4F53452046494C04
:103AD60045204641494C0A002D3E41434D440A00CB
:103AE60046415400464154333200222A2B2C3A3B9D
:103AF6003C3D3E3F5B5D7C7F00809A45418E418F19
:103B0600804545454949498E8F9092924F994F5528
:103B16005559999A9B9C9D9E9F41494F55A5A5A68F
:103B2600A7A8A9AAABACADAEAFB0B1B2B3B4B5B6A7
:103B3600B7B8B9BABBBCBDBEBFC0C1C2C3C4C5C697
:103B4600C7C8C9CACBCCCDCECFD0D1D2D3D4D5D687
:103B5600D7D8D9DADBDCDDDEDFE0E1E2E3E4E5E677
:103B6600E7E8E9EAEBECEDEEEFF0F1F2F3F4F5F667
:0A3B7600F7F8F9FAFBFCFDFEFF0072
:00000001FF
