:1000000033C0000041C000003FC000003DC0000000
:100010003BC0000039C0000037C0000043C00000F2
:1000200033C0000031C000002FC000002DC0000010
:100030002BC0000029C0000027C0000025C0000020
:1000400023C0000021C000001FC000001DC0000030
:100050001BC0000019C0000017C0000015C0000040
:1000600013C0000011C0000011241FBECFEFD8E064
:10007000DEBFCDBF21E0A0E0B1E001C01D92A43001
:10008000B207E1F702D054C0BBCF8FEF84B92D9AED
:10009000C0E285B18C2785B964EF71E080E090E023
:1000A00026D0F7CF1F920F920FB60F9211248F9385
:1000B0009F93AF93BF938091000190910101A09114
:1000C0000201B09103010196A11DB11D80930001B1
:1000D00090930101A0930201B0930301BF91AF91EE
:1000E0009F918F910F900FBE0F901F9018952091A8
:1000F000B00022602093B0002091B10024602093D2
:10010000B10029EF2093B3001092B2006115710580
:100110008105910541F0B99BFECFB99A61507109F3
:1001200081099109F3CF1092B0001092B1000895A7
:04013000F894FFCF71
:00000001FF
